{
  "contractName": "Admin",
  "abi": [
    {
      "constant": true,
      "inputs": [],
      "name": "name",
      "outputs": [
        {
          "name": "",
          "type": "bytes32"
        }
      ],
      "payable": false,
      "stateMutability": "view",
      "type": "function",
      "signature": "0x06fdde03"
    },
    {
      "constant": false,
      "inputs": [
        {
          "name": "_newName",
          "type": "bytes32"
        }
      ],
      "name": "setName",
      "outputs": [
        {
          "name": "success",
          "type": "bool"
        }
      ],
      "payable": false,
      "stateMutability": "nonpayable",
      "type": "function",
      "signature": "0x5ac801fe"
    },
    {
      "constant": true,
      "inputs": [
        {
          "name": "",
          "type": "address"
        }
      ],
      "name": "admin",
      "outputs": [
        {
          "name": "",
          "type": "bool"
        }
      ],
      "payable": false,
      "stateMutability": "view",
      "type": "function",
      "signature": "0x63a846f8"
    },
    {
      "constant": false,
      "inputs": [],
      "name": "acceptOwnership",
      "outputs": [],
      "payable": false,
      "stateMutability": "nonpayable",
      "type": "function",
      "signature": "0x79ba5097"
    },
    {
      "constant": true,
      "inputs": [],
      "name": "owner",
      "outputs": [
        {
          "name": "",
          "type": "address"
        }
      ],
      "payable": false,
      "stateMutability": "view",
      "type": "function",
      "signature": "0x8da5cb5b"
    },
    {
      "constant": true,
      "inputs": [],
      "name": "newOwner",
      "outputs": [
        {
          "name": "",
          "type": "address"
        }
      ],
      "payable": false,
      "stateMutability": "view",
      "type": "function",
      "signature": "0xd4ee1d90"
    },
    {
      "constant": false,
      "inputs": [
        {
          "name": "_newOwner",
          "type": "address"
        }
      ],
      "name": "transferOwnership",
      "outputs": [],
      "payable": false,
      "stateMutability": "nonpayable",
      "type": "function",
      "signature": "0xf2fde38b"
    },
    {
      "inputs": [],
      "payable": false,
      "stateMutability": "nonpayable",
      "type": "constructor",
      "signature": "constructor"
    },
    {
      "anonymous": false,
      "inputs": [
        {
          "indexed": true,
          "name": "admin",
          "type": "address"
        },
        {
          "indexed": true,
          "name": "account",
          "type": "address"
        }
      ],
      "name": "AdminAdded",
      "type": "event",
      "signature": "0xbf3f493c772c8c283fd124432c2d0f539ab343faa04258fe88e52912d36b102b"
    },
    {
      "anonymous": false,
      "inputs": [
        {
          "indexed": true,
          "name": "admin",
          "type": "address"
        },
        {
          "indexed": true,
          "name": "account",
          "type": "address"
        }
      ],
      "name": "AdminRemoved",
      "type": "event",
      "signature": "0xdb9d5d31320daf5bc7181d565b6da4d12e30f0f4d5aa324a992426c14a1d19ce"
    },
    {
      "anonymous": false,
      "inputs": [
        {
          "indexed": true,
          "name": "account",
          "type": "address"
        }
      ],
      "name": "AdminRenounced",
      "type": "event",
      "signature": "0x3aeb34a9cebce3c91879dc662fedfe0060c966cfcefb6985a595d1c0c56b8fca"
    },
    {
      "anonymous": false,
      "inputs": [
        {
          "indexed": true,
          "name": "_owner",
          "type": "address"
        },
        {
          "indexed": false,
          "name": "_newName",
          "type": "bytes32"
        }
      ],
      "name": "NameChanged",
      "type": "event",
      "signature": "0x14730c8acd0e6ebe26cf9620e28f2f6dac83c99686ec435a5671aac35a4d46a7"
    },
    {
      "anonymous": false,
      "inputs": [
        {
          "indexed": true,
          "name": "_from",
          "type": "address"
        },
        {
          "indexed": true,
          "name": "_to",
          "type": "address"
        }
      ],
      "name": "OwnershipTransferred",
      "type": "event",
      "signature": "0x8be0079c531659141344cd1fd0a4f28419497f9722a3daafe3b4186f6b6457e0"
    },
    {
      "constant": true,
      "inputs": [
        {
          "name": "_account",
          "type": "address"
        }
      ],
      "name": "isAdmin",
      "outputs": [
        {
          "name": "",
          "type": "bool"
        }
      ],
      "payable": false,
      "stateMutability": "view",
      "type": "function",
      "signature": "0x24d7806c"
    },
    {
      "constant": false,
      "inputs": [
        {
          "name": "_account",
          "type": "address"
        }
      ],
      "name": "addAdmin",
      "outputs": [],
      "payable": false,
      "stateMutability": "nonpayable",
      "type": "function",
      "signature": "0x70480275"
    },
    {
      "constant": false,
      "inputs": [
        {
          "name": "_account",
          "type": "address"
        }
      ],
      "name": "removeAdmin",
      "outputs": [],
      "payable": false,
      "stateMutability": "nonpayable",
      "type": "function",
      "signature": "0x1785f53c"
    },
    {
      "constant": false,
      "inputs": [],
      "name": "renounceAdmin",
      "outputs": [],
      "payable": false,
      "stateMutability": "nonpayable",
      "type": "function",
      "signature": "0x8bad0c0a"
    }
  ],
  "bytecode": "0x608060405234801561001057600080fd5b5060008054600160a060020a0319163317808255604051600160a060020a039190911691907f8be0079c531659141344cd1fd0a4f28419497f9722a3daafe3b4186f6b6457e0908290a360006002556100713364010000000061009a810204565b7f466961746563682061646d696e730000000000000000000000000000000000006002556101fd565b600054600160a060020a0316331461011357604080517f08c379a000000000000000000000000000000000000000000000000000000000815260206004820152600e60248201527f4f776e6572207265717569726564000000000000000000000000000000000000604482015290519081900360640190fd5b600160a060020a038116151561012857600080fd5b600160a060020a03811660009081526003602052604090205460ff16156101b057604080517f08c379a000000000000000000000000000000000000000000000000000000000815260206004820152601360248201527f41646d696e20616c726561647920616464656400000000000000000000000000604482015290519081900360640190fd5b600160a060020a038116600081815260036020526040808220805460ff191660011790555133917fbf3f493c772c8c283fd124432c2d0f539ab343faa04258fe88e52912d36b102b91a350565b6109088061020c6000396000f3006080604052600436106100ae5763ffffffff7c010000000000000000000000000000000000000000000000000000000060003504166306fdde0381146100b35780631785f53c146100da57806324d7806c146100fd5780635ac801fe1461013257806363a846f81461014a578063704802751461016b57806379ba50971461018c5780638bad0c0a146101a15780638da5cb5b146101b6578063d4ee1d90146101e7578063f2fde38b146101fc575b600080fd5b3480156100bf57600080fd5b506100c861021d565b60408051918252519081900360200190f35b3480156100e657600080fd5b506100fb600160a060020a0360043516610223565b005b34801561010957600080fd5b5061011e600160a060020a03600435166103d0565b604080519115158252519081900360200190f35b34801561013e57600080fd5b5061011e6004356103f2565b34801561015657600080fd5b5061011e600160a060020a0360043516610497565b34801561017757600080fd5b506100fb600160a060020a03600435166104ac565b34801561019857600080fd5b506100fb6105cf565b3480156101ad57600080fd5b506100fb6106ee565b3480156101c257600080fd5b506101cb61081f565b60408051600160a060020a039092168252519081900360200190f35b3480156101f357600080fd5b506101cb61082e565b34801561020857600080fd5b506100fb600160a060020a036004351661083d565b60025481565b600054600160a060020a03163314610273576040805160e560020a62461bcd02815260206004820152600e60248201526000805160206108bd833981519152604482015290519081900360640190fd5b600160a060020a038116151561028857600080fd5b600054600160a060020a0382811691161415610314576040805160e560020a62461bcd02815260206004820152602360248201527f4f776e65722063616e206e6f742072656d6f7665206869732061646d696e207260448201527f6f6c650000000000000000000000000000000000000000000000000000000000606482015290519081900360840190fd5b600160a060020a03811660009081526003602052604090205460ff161515610386576040805160e560020a62461bcd02815260206004820152601160248201527f52656d6f76652061646d696e206f6e6c79000000000000000000000000000000604482015290519081900360640190fd5b600160a060020a038116600081815260036020526040808220805460ff191690555133917fdb9d5d31320daf5bc7181d565b6da4d12e30f0f4d5aa324a992426c14a1d19ce91a350565b600160a060020a03811660009081526003602052604090205460ff165b919050565b60008054600160a060020a03163314610443576040805160e560020a62461bcd02815260206004820152600e60248201526000805160206108bd833981519152604482015290519081900360640190fd5b600254821461048f57600282905560408051838152905133917f14730c8acd0e6ebe26cf9620e28f2f6dac83c99686ec435a5671aac35a4d46a7919081900360200190a25060016103ed565b506000919050565b60036020526000908152604090205460ff1681565b600054600160a060020a031633146104fc576040805160e560020a62461bcd02815260206004820152600e60248201526000805160206108bd833981519152604482015290519081900360640190fd5b600160a060020a038116151561051157600080fd5b600160a060020a03811660009081526003602052604090205460ff1615610582576040805160e560020a62461bcd02815260206004820152601360248201527f41646d696e20616c726561647920616464656400000000000000000000000000604482015290519081900360640190fd5b600160a060020a038116600081815260036020526040808220805460ff191660011790555133917fbf3f493c772c8c283fd124432c2d0f539ab343faa04258fe88e52912d36b102b91a350565b600154600160a060020a0316331461067d576040805160e560020a62461bcd02815260206004820152604860248201527f4f776e65643a204f6e6c79207573657220776974682070656e64696e67206f7760448201527f6e65727368697020616363657074616e63652063616e20616363657074206f7760648201527f6e65727368697021000000000000000000000000000000000000000000000000608482015290519081900360a40190fd5b60015460008054604051600160a060020a0393841693909116917f8be0079c531659141344cd1fd0a4f28419497f9722a3daafe3b4186f6b6457e091a3600180546000805473ffffffffffffffffffffffffffffffffffffffff19908116600160a060020a03841617909155169055565b600054600160a060020a0316331415610777576040805160e560020a62461bcd02815260206004820152602860248201527f4f776e65722063616e206e6f742072656e6f756e636520746f2068697320616460448201527f6d696e20726f6c65000000000000000000000000000000000000000000000000606482015290519081900360840190fd5b3360009081526003602052604090205460ff1615156107e0576040805160e560020a62461bcd02815260206004820152601360248201527f52656e6f756e63652061646d696e206f6e6c7900000000000000000000000000604482015290519081900360640190fd5b33600081815260036020526040808220805460ff19169055517f3aeb34a9cebce3c91879dc662fedfe0060c966cfcefb6985a595d1c0c56b8fca9190a2565b600054600160a060020a031681565b600154600160a060020a031681565b600054600160a060020a0316331461088d576040805160e560020a62461bcd02815260206004820152600e60248201526000805160206108bd833981519152604482015290519081900360640190fd5b6001805473ffffffffffffffffffffffffffffffffffffffff1916600160a060020a039290921691909117905556004f776e6572207265717569726564000000000000000000000000000000000000a165627a7a723058200d44f192262cda9eb5066f92118ae8d6668629c1641d42284c3d20c57bc9272c0029",
  "source": "pragma solidity ^0.4.24;\n\nimport \"./interfaces/IAdmin.sol\";\nimport \"./Owned.sol\";\nimport \"./Named.sol\";\n\ncontract Admin is IAdmin\n\t, Owned\n\t, Named\n{\n\t/**\n\t * @dev Event is raised when a new admin was added.\n\t * @param admin Admin address performing the operation.\n\t * @param account New admin address added.\n\t */\n\tevent AdminAdded(address indexed admin, address indexed account);\n\t\n\t/**\n\t * @dev Event is raised when admin was removed.\n\t * @param admin Admin address performing the operation.\n\t * @param account Admin address being removed.\n\t */\n    event AdminRemoved(address indexed admin, address indexed account);\n\t\n\t/**\n\t * @dev Event is raised when admin renounces to his admin role.\n\t * @param account Admin address renouncing to his admin role.\n\t */\n\tevent AdminRenounced(address indexed account);\n\t\n\t\n\t\n\tmapping(address => bool) public admin;\n\t\n\tconstructor()\n\t\tOwned()\n\t\tpublic\n\t{\n\t\taddAdmin(msg.sender);\n\t\tname = \"Fiatech admins\";\n\t}\n\t\n\tmodifier onlyAdmin() {\n\t\trequire(admin[msg.sender], \"Admin required\");\n\t\t_;\n\t}\n\t\n\tfunction isAdmin(address _account) public view returns (bool) {\n\t\treturn admin[_account];\n\t}\n\t\n\tfunction addAdmin(address _account) public onlyOwner {\n\t\trequire(_account != address(0));\n\t\trequire(!admin[_account], \"Admin already added\");\n\t\tadmin[_account] = true;\n\t\temit AdminAdded(msg.sender, _account);\n\t}\n\t\n\tfunction removeAdmin(address _account) public onlyOwner {\n\t\trequire(_account != address(0));\n\t\trequire(_account != owner, \"Owner can not remove his admin role\");\n\t\trequire(admin[_account], \"Remove admin only\");\n\t\tadmin[_account] = false;\n\t\temit AdminRemoved(msg.sender, _account);\n\t}\n\t\n\tfunction renounceAdmin() public {\n\t\trequire(msg.sender != owner, \"Owner can not renounce to his admin role\");\n\t\trequire(admin[msg.sender], \"Renounce admin only\");\n\t\tadmin[msg.sender] = false;\n\t\temit AdminRenounced(msg.sender);\n    }\n}\n",
  "sourcePath": "C:/Users/Homeuser/Desktop/FiatechFiatCurrencyToken/contracts/Admin.sol",
  "compiler": {
    "name": "solc",
    "version": "0.4.24+commit.e67f0147.Emscripten.clang"
  },
  "schemaVersion": "3.0.5",
  "updatedAt": "2019-11-28T22:36:50.231Z",
  "devdoc": {
    "methods": {
      "acceptOwnership()": {
        "details": "New owner pending to accept ownership executes this function to confirm his ownership.\r"
      },
      "setName(bytes32)": {
        "details": "Change contract name, only admin can do it.\r",
        "params": {
          "_newName": "New name given to contract.\r"
        }
      },
      "transferOwnership(address)": {
        "details": "Transfer ownership function\r",
        "params": {
          "_newOwner": "New owner address acquiring ownership of contract\r"
        }
      }
    }
  },
  "userdoc": {
    "methods": {}
  }
}