{
  "contractName": "EtherReclaimer",
  "abi": [
    {
      "constant": false,
      "inputs": [],
      "name": "acceptOwnership",
      "outputs": [],
      "payable": false,
      "stateMutability": "nonpayable",
      "type": "function"
    },
    {
      "constant": true,
      "inputs": [],
      "name": "owner",
      "outputs": [
        {
          "name": "",
          "type": "address"
        }
      ],
      "payable": false,
      "stateMutability": "view",
      "type": "function"
    },
    {
      "constant": true,
      "inputs": [],
      "name": "newOwner",
      "outputs": [
        {
          "name": "",
          "type": "address"
        }
      ],
      "payable": false,
      "stateMutability": "view",
      "type": "function"
    },
    {
      "constant": false,
      "inputs": [
        {
          "name": "_newOwner",
          "type": "address"
        }
      ],
      "name": "transferOwnership",
      "outputs": [],
      "payable": false,
      "stateMutability": "nonpayable",
      "type": "function"
    },
    {
      "inputs": [],
      "payable": false,
      "stateMutability": "nonpayable",
      "type": "constructor"
    },
    {
      "payable": true,
      "stateMutability": "payable",
      "type": "fallback"
    },
    {
      "anonymous": false,
      "inputs": [
        {
          "indexed": true,
          "name": "_from",
          "type": "address"
        },
        {
          "indexed": true,
          "name": "_to",
          "type": "address"
        }
      ],
      "name": "OwnershipTransferred",
      "type": "event"
    },
    {
      "constant": false,
      "inputs": [
        {
          "name": "_to",
          "type": "address"
        }
      ],
      "name": "reclaimEther",
      "outputs": [
        {
          "name": "",
          "type": "bool"
        }
      ],
      "payable": false,
      "stateMutability": "nonpayable",
      "type": "function"
    }
  ],
  "bytecode": "0x608060405234801561001057600080fd5b5060008054600160a060020a0319163317808255604051600160a060020a039190911691907f8be0079c531659141344cd1fd0a4f28419497f9722a3daafe3b4186f6b6457e0908290a3610400806100696000396000f30060806040526004361061006c5763ffffffff7c010000000000000000000000000000000000000000000000000000000060003504166379ba5097811461006e5780638da5cb5b146100835780639a6a30a4146100b4578063d4ee1d90146100e9578063f2fde38b146100fe575b005b34801561007a57600080fd5b5061006c61011f565b34801561008f57600080fd5b50610098610255565b60408051600160a060020a039092168252519081900360200190f35b3480156100c057600080fd5b506100d5600160a060020a0360043516610264565b604080519115158252519081900360200190f35b3480156100f557600080fd5b5061009861031d565b34801561010a57600080fd5b5061006c600160a060020a036004351661032c565b600154600160a060020a031633146101e457604080517f08c379a000000000000000000000000000000000000000000000000000000000815260206004820152604860248201527f4f776e65643a204f6e6c79207573657220776974682070656e64696e67206f7760448201527f6e65727368697020616363657074616e63652063616e20616363657074206f7760648201527f6e65727368697021000000000000000000000000000000000000000000000000608482015290519081900360a40190fd5b60015460008054604051600160a060020a0393841693909116917f8be0079c531659141344cd1fd0a4f28419497f9722a3daafe3b4186f6b6457e091a3600180546000805473ffffffffffffffffffffffffffffffffffffffff19908116600160a060020a03841617909155169055565b600054600160a060020a031681565b60008054600160a060020a031633146102de57604080517f08c379a000000000000000000000000000000000000000000000000000000000815260206004820152600e60248201527f4f776e6572207265717569726564000000000000000000000000000000000000604482015290519081900360640190fd5b604051600160a060020a03831690303180156108fc02916000818181858888f19350505050158015610314573d6000803e3d6000fd5b50600192915050565b600154600160a060020a031681565b600054600160a060020a031633146103a557604080517f08c379a000000000000000000000000000000000000000000000000000000000815260206004820152600e60248201527f4f776e6572207265717569726564000000000000000000000000000000000000604482015290519081900360640190fd5b6001805473ffffffffffffffffffffffffffffffffffffffff1916600160a060020a03929092169190911790555600a165627a7a723058206ddc3b951be66459450c713b24489da16b10defbe970260cdedd02bca1f790190029",
  "source": "pragma solidity ^0.4.24;\r\n\r\nimport \"./libs/SafeMathLib.sol\";\r\nimport \"./interfaces/IEtherReclaimer.sol\";\r\nimport \"./Owned.sol\";\r\n\r\n\r\n\r\n/**\r\n * @dev ERC20 Token, with symbol, name, standard and decimals among others.\r\n * Token units in this contract mean cents or pennies of the fiat currency it represents.\r\n */\r\ncontract EtherReclaimer is Owned\r\n\t\t, IEtherReclaimer\r\n{\r\n    /**\r\n\t * @dev Constructor\r\n\t */\r\n    constructor()\r\n\t\tOwned()\r\n\t\tpublic\r\n\t{\r\n    }\r\n\t\r\n\t/**\r\n\t * Accept ETH\r\n\t */\r\n    function () external payable {\r\n    }\r\n\t\r\n\t\r\n\t\r\n\t/**\r\n\t * @dev Send all eth balance in the contract to another address\r\n\t * @param _to Address to send contract ether balance to\r\n\t * @return bool\r\n\t */\r\n    function reclaimEther(address _to) external onlyOwner returns (bool) {\r\n        _to.transfer(address(this).balance);\r\n\t\treturn true;\r\n    }\r\n}",
  "sourcePath": "C:\\Users\\Homeuser\\Desktop\\FiatechFiatCurrencyToken\\contracts\\EtherReclaimer.sol",
  "compiler": {
    "name": "solc",
    "version": "0.4.24+commit.e67f0147.Emscripten.clang"
  },
  "schemaVersion": "3.0.5",
  "updatedAt": "2019-11-28T22:36:38.613Z",
  "devdoc": {
    "methods": {
      "acceptOwnership()": {
        "details": "New owner pending to accept ownership executes this function to confirm his ownership.\r"
      },
      "reclaimEther(address)": {
        "details": "Send all eth balance in the contract to another address\r",
        "params": {
          "_to": "Address to send contract ether balance to\r"
        },
        "return": "bool\r"
      },
      "transferOwnership(address)": {
        "details": "Transfer ownership function\r",
        "params": {
          "_newOwner": "New owner address acquiring ownership of contract\r"
        }
      }
    }
  },
  "userdoc": {
    "methods": {}
  }
}