{
  "contractName": "FiatToken",
  "abi": [
    {
      "constant": true,
      "inputs": [],
      "name": "totalSupply",
      "outputs": [
        {
          "name": "",
          "type": "uint256"
        }
      ],
      "payable": false,
      "stateMutability": "view",
      "type": "function"
    },
    {
      "constant": false,
      "inputs": [
        {
          "name": "spender",
          "type": "address"
        },
        {
          "name": "addedValue",
          "type": "uint256"
        }
      ],
      "name": "increaseAllowance",
      "outputs": [
        {
          "name": "",
          "type": "bool"
        }
      ],
      "payable": false,
      "stateMutability": "nonpayable",
      "type": "function"
    },
    {
      "constant": false,
      "inputs": [],
      "name": "kill",
      "outputs": [],
      "payable": false,
      "stateMutability": "nonpayable",
      "type": "function"
    },
    {
      "constant": true,
      "inputs": [
        {
          "name": "_owner",
          "type": "address"
        }
      ],
      "name": "balanceOf",
      "outputs": [
        {
          "name": "balance",
          "type": "uint256"
        }
      ],
      "payable": false,
      "stateMutability": "view",
      "type": "function"
    },
    {
      "constant": true,
      "inputs": [],
      "name": "config",
      "outputs": [
        {
          "name": "",
          "type": "address"
        }
      ],
      "payable": false,
      "stateMutability": "view",
      "type": "function"
    },
    {
      "constant": false,
      "inputs": [],
      "name": "acceptOwnership",
      "outputs": [],
      "payable": false,
      "stateMutability": "nonpayable",
      "type": "function"
    },
    {
      "constant": true,
      "inputs": [],
      "name": "owner",
      "outputs": [
        {
          "name": "",
          "type": "address"
        }
      ],
      "payable": false,
      "stateMutability": "view",
      "type": "function"
    },
    {
      "constant": false,
      "inputs": [
        {
          "name": "spender",
          "type": "address"
        },
        {
          "name": "subtractedValue",
          "type": "uint256"
        }
      ],
      "name": "decreaseAllowance",
      "outputs": [
        {
          "name": "",
          "type": "bool"
        }
      ],
      "payable": false,
      "stateMutability": "nonpayable",
      "type": "function"
    },
    {
      "constant": false,
      "inputs": [
        {
          "name": "_config",
          "type": "address"
        }
      ],
      "name": "setIConfig",
      "outputs": [],
      "payable": false,
      "stateMutability": "nonpayable",
      "type": "function"
    },
    {
      "constant": true,
      "inputs": [],
      "name": "transferFees",
      "outputs": [
        {
          "name": "",
          "type": "address"
        }
      ],
      "payable": false,
      "stateMutability": "view",
      "type": "function"
    },
    {
      "constant": true,
      "inputs": [],
      "name": "newOwner",
      "outputs": [
        {
          "name": "",
          "type": "address"
        }
      ],
      "payable": false,
      "stateMutability": "view",
      "type": "function"
    },
    {
      "constant": false,
      "inputs": [
        {
          "name": "_newOwner",
          "type": "address"
        }
      ],
      "name": "transferOwnership",
      "outputs": [],
      "payable": false,
      "stateMutability": "nonpayable",
      "type": "function"
    },
    {
      "constant": false,
      "inputs": [
        {
          "name": "_fees",
          "type": "address"
        }
      ],
      "name": "setIFees",
      "outputs": [],
      "payable": false,
      "stateMutability": "nonpayable",
      "type": "function"
    },
    {
      "inputs": [
        {
          "name": "_config",
          "type": "address"
        },
        {
          "name": "_fees",
          "type": "address"
        }
      ],
      "payable": false,
      "stateMutability": "nonpayable",
      "type": "constructor"
    },
    {
      "payable": true,
      "stateMutability": "payable",
      "type": "fallback"
    },
    {
      "anonymous": false,
      "inputs": [
        {
          "indexed": true,
          "name": "_from",
          "type": "address"
        },
        {
          "indexed": true,
          "name": "_to",
          "type": "address"
        }
      ],
      "name": "OwnershipTransferred",
      "type": "event"
    },
    {
      "anonymous": false,
      "inputs": [
        {
          "indexed": true,
          "name": "from",
          "type": "address"
        },
        {
          "indexed": true,
          "name": "to",
          "type": "address"
        },
        {
          "indexed": false,
          "name": "transferTokens",
          "type": "uint256"
        },
        {
          "indexed": true,
          "name": "feesCollector",
          "type": "address"
        },
        {
          "indexed": false,
          "name": "transferTokensFee",
          "type": "uint256"
        }
      ],
      "name": "TransferFeesCollected",
      "type": "event"
    },
    {
      "anonymous": false,
      "inputs": [
        {
          "indexed": true,
          "name": "_admin",
          "type": "address"
        },
        {
          "indexed": true,
          "name": "_to",
          "type": "address"
        },
        {
          "indexed": false,
          "name": "_amount",
          "type": "uint256"
        }
      ],
      "name": "DepositAccepted",
      "type": "event"
    },
    {
      "anonymous": false,
      "inputs": [
        {
          "indexed": true,
          "name": "_from",
          "type": "address"
        },
        {
          "indexed": false,
          "name": "_amount",
          "type": "uint256"
        },
        {
          "indexed": false,
          "name": "_withdrawalTokensFee",
          "type": "uint256"
        }
      ],
      "name": "WithdrawalRequested",
      "type": "event"
    },
    {
      "anonymous": false,
      "inputs": [
        {
          "indexed": true,
          "name": "_admin",
          "type": "address"
        },
        {
          "indexed": true,
          "name": "_account",
          "type": "address"
        },
        {
          "indexed": false,
          "name": "_value",
          "type": "uint256"
        }
      ],
      "name": "WipeoutBlacklistedAddress",
      "type": "event"
    },
    {
      "anonymous": false,
      "inputs": [
        {
          "indexed": true,
          "name": "from",
          "type": "address"
        },
        {
          "indexed": true,
          "name": "to",
          "type": "address"
        },
        {
          "indexed": false,
          "name": "tokens",
          "type": "uint256"
        }
      ],
      "name": "Transfer",
      "type": "event"
    },
    {
      "anonymous": false,
      "inputs": [
        {
          "indexed": true,
          "name": "owner",
          "type": "address"
        },
        {
          "indexed": true,
          "name": "spender",
          "type": "address"
        },
        {
          "indexed": false,
          "name": "tokens",
          "type": "uint256"
        }
      ],
      "name": "Approval",
      "type": "event"
    },
    {
      "constant": false,
      "inputs": [
        {
          "name": "to",
          "type": "address"
        },
        {
          "name": "tokens",
          "type": "uint256"
        }
      ],
      "name": "transfer",
      "outputs": [
        {
          "name": "",
          "type": "bool"
        }
      ],
      "payable": false,
      "stateMutability": "nonpayable",
      "type": "function"
    },
    {
      "constant": false,
      "inputs": [
        {
          "name": "spender",
          "type": "address"
        },
        {
          "name": "tokens",
          "type": "uint256"
        }
      ],
      "name": "approve",
      "outputs": [
        {
          "name": "",
          "type": "bool"
        }
      ],
      "payable": false,
      "stateMutability": "nonpayable",
      "type": "function"
    },
    {
      "constant": false,
      "inputs": [
        {
          "name": "from",
          "type": "address"
        },
        {
          "name": "to",
          "type": "address"
        },
        {
          "name": "tokens",
          "type": "uint256"
        }
      ],
      "name": "transferFrom",
      "outputs": [
        {
          "name": "",
          "type": "bool"
        }
      ],
      "payable": false,
      "stateMutability": "nonpayable",
      "type": "function"
    },
    {
      "constant": true,
      "inputs": [
        {
          "name": "tokenOwner",
          "type": "address"
        },
        {
          "name": "spender",
          "type": "address"
        }
      ],
      "name": "allowance",
      "outputs": [
        {
          "name": "remaining",
          "type": "uint256"
        }
      ],
      "payable": false,
      "stateMutability": "view",
      "type": "function"
    },
    {
      "constant": false,
      "inputs": [
        {
          "name": "_to",
          "type": "address"
        },
        {
          "name": "_amount",
          "type": "uint256"
        }
      ],
      "name": "depositAccept",
      "outputs": [
        {
          "name": "",
          "type": "bool"
        }
      ],
      "payable": false,
      "stateMutability": "nonpayable",
      "type": "function"
    },
    {
      "constant": false,
      "inputs": [
        {
          "name": "_amount",
          "type": "uint256"
        }
      ],
      "name": "withdrawRequest",
      "outputs": [
        {
          "name": "",
          "type": "bool"
        }
      ],
      "payable": false,
      "stateMutability": "nonpayable",
      "type": "function"
    },
    {
      "constant": false,
      "inputs": [
        {
          "name": "_account",
          "type": "address"
        }
      ],
      "name": "wipeoutAddressBalance",
      "outputs": [
        {
          "name": "",
          "type": "bool"
        }
      ],
      "payable": false,
      "stateMutability": "nonpayable",
      "type": "function"
    },
    {
      "constant": false,
      "inputs": [
        {
          "name": "_to",
          "type": "address"
        }
      ],
      "name": "reclaimEther",
      "outputs": [
        {
          "name": "",
          "type": "bool"
        }
      ],
      "payable": false,
      "stateMutability": "nonpayable",
      "type": "function"
    },
    {
      "constant": false,
      "inputs": [
        {
          "name": "tokenAddress",
          "type": "address"
        },
        {
          "name": "tokens",
          "type": "uint256"
        }
      ],
      "name": "recoverAnyERC20Token",
      "outputs": [
        {
          "name": "ok",
          "type": "bool"
        }
      ],
      "payable": false,
      "stateMutability": "nonpayable",
      "type": "function"
    }
  ],
  "bytecode": "0x60806040523480156200001157600080fd5b506040516040806200219c833981016040819052815160209092015160008054600160a060020a031916331780825591928392859291600160a060020a03919091169082907f8be0079c531659141344cd1fd0a4f28419497f9722a3daafe3b4186f6b6457e0908290a3600481905533600090815260026020526040902055620000a481640100000000620000c2810204565b50620000b9816401000000006200015e810204565b505050620001fa565b600054600160a060020a031633146200013c57604080517f08c379a000000000000000000000000000000000000000000000000000000000815260206004820152600e60248201527f4f776e6572207265717569726564000000000000000000000000000000000000604482015290519081900360640190fd5b60058054600160a060020a031916600160a060020a0392909216919091179055565b600054600160a060020a03163314620001d857604080517f08c379a000000000000000000000000000000000000000000000000000000000815260206004820152600e60248201527f4f776e6572207265717569726564000000000000000000000000000000000000604482015290519081900360640190fd5b60068054600160a060020a031916600160a060020a0392909216919091179055565b611f92806200020a6000396000f30060806040526004361061010e5763ffffffff60e060020a600035041663095ea7b38114610110578063119b2abb1461014857806318160ddd1461016957806323b872dd1461019057806329d6b67a146101ba57806339509351146101de57806341c0e1b51461020257806370a082311461021757806374899a7e1461023857806379502c551461025057806379ba5097146102815780638da5cb5b146102965780639a6a30a4146102ab578063a457c2d7146102cc578063a50d4005146102f0578063a9059cbb14610314578063bb3954fd14610338578063c2fbe7bc14610359578063d4ee1d901461036e578063dd62ed3e14610383578063f2fde38b146103aa578063ffa0b8e6146103cb575b005b34801561011c57600080fd5b50610134600160a060020a03600435166024356103ec565b604080519115158252519081900360200190f35b34801561015457600080fd5b50610134600160a060020a03600435166104a7565b34801561017557600080fd5b5061017e61064b565b60408051918252519081900360200190f35b34801561019c57600080fd5b50610134600160a060020a0360043581169060243516604435610651565b3480156101c657600080fd5b50610134600160a060020a0360043516602435610ac4565b3480156101ea57600080fd5b50610134600160a060020a0360043516602435610c60565b34801561020e57600080fd5b5061010e610caa565b34801561022357600080fd5b5061017e600160a060020a0360043516610d08565b34801561024457600080fd5b50610134600435610d23565b34801561025c57600080fd5b50610265611020565b60408051600160a060020a039092168252519081900360200190f35b34801561028d57600080fd5b5061010e61102f565b3480156102a257600080fd5b5061026561114e565b3480156102b757600080fd5b50610134600160a060020a036004351661115d565b3480156102d857600080fd5b50610134600160a060020a03600435166024356111e4565b3480156102fc57600080fd5b50610134600160a060020a0360043516602435611220565b34801561032057600080fd5b50610134600160a060020a0360043516602435611314565b34801561034457600080fd5b5061010e600160a060020a03600435166117f0565b34801561036557600080fd5b5061026561186f565b34801561037a57600080fd5b5061026561187e565b34801561038f57600080fd5b5061017e600160a060020a036004358116906024351661188d565b3480156103b657600080fd5b5061010e600160a060020a0360043516611899565b3480156103d757600080fd5b5061010e600160a060020a0360043516611918565b600554604080517fdf6cab40000000000000000000000000000000000000000000000000000000008152336004820152600160a060020a0385811660248301529151600093929092169163df6cab409160448082019260209290919082900301818787803b15801561045d57600080fd5b505af1158015610471573d6000803e3d6000fd5b505050506040513d602081101561048757600080fd5b5051151561049457600080fd5b61049e8383611997565b90505b92915050565b600554604080517f85a096f5000000000000000000000000000000000000000000000000000000008152336004820152600160a060020a0384811660248301529151600093849316916385a096f591604480830192602092919082900301818787803b15801561051657600080fd5b505af115801561052a573d6000803e3d6000fd5b505050506040513d602081101561054057600080fd5b50511515610598576040805160e560020a62461bcd02815260206004820152601f60248201527f63616e576970656f75744164647265737342616c616e6365206661696c656400604482015290519081900360640190fd5b6105a183610d08565b600160a060020a0384166000908152600260205260408120556004549091506105d0908263ffffffff6119a416565b600455604080518281529051600091600160a060020a03861691600080516020611f478339815191529181900360200190a3604080518281529051600160a060020a0385169133917fc2f4614ec5281d347757d098f09aec9387f971dfa186d048e9a2c9c9b38b65849181900360200190a350600192915050565b60045490565b6000808080808080600160a060020a03891615156106725760009650610ab7565b600554604080517fcef701f2000000000000000000000000000000000000000000000000000000008152336004820152600160a060020a038d811660248301528c811660448301529151919092169163cef701f29160648083019260209291908290030181600087803b1580156106e857600080fd5b505af11580156106fc573d6000803e3d6000fd5b505050506040513d602081101561071257600080fd5b5051151561071f57600080fd5b600654604080517f99a5d747000000000000000000000000000000000000000000000000000000008152600481018b90529051600160a060020a03909216916399a5d747916024808201926020929091908290030181600087803b15801561078657600080fd5b505af115801561079a573d6000803e3d6000fd5b505050506040513d60208110156107b057600080fd5b5051600554604080517fe9ea2e4c000000000000000000000000000000000000000000000000000000008152336004820152600160a060020a038e811660248301528d81166044830152915193995091169163e9ea2e4c916064808201926020929091908290030181600087803b15801561082a57600080fd5b505af115801561083e573d6000803e3d6000fd5b505050506040513d602081101561085457600080fd5b50511561086057600095505b610870888763ffffffff611a0416565b94508461087c8b610d08565b101580156108935750846108908b33611a5f565b10155b151561089e57600080fd5b6108a98a8a8a611a8a565b93506000600160a060020a0316600560009054906101000a9004600160a060020a0316600160a060020a031663e2d2f6346040518163ffffffff1660e060020a028152600401602060405180830381600087803b15801561090957600080fd5b505af115801561091d573d6000803e3d6000fd5b505050506040513d602081101561093357600080fd5b5051600160a060020a0316146109c757600560009054906101000a9004600160a060020a0316600160a060020a031663e2d2f6346040518163ffffffff1660e060020a028152600401602060405180830381600087803b15801561099657600080fd5b505af11580156109aa573d6000803e3d6000fd5b505050506040513d60208110156109c057600080fd5b50516109d4565b600054600160a060020a03165b92506109e18a8488611a8a565b91508380156109ed5750815b1515610a43576040805160e560020a62461bcd02815260206004820152601360248201527f7472616e7366657246726f6d206661696c656400000000000000000000000000604482015290519081900360640190fd5b838015610a4d5750815b90508015610ab35782600160a060020a031689600160a060020a03168b600160a060020a03167f13e03272a9354ecc84c6ab7776b34bbc80d3d0f69b2cb0dc5b0134e8d63c94478b8a604051808381526020018281526020019250505060405180910390a45b8096505b5050505050509392505050565b600554604080517ff0b919ab000000000000000000000000000000000000000000000000000000008152336004820152600160a060020a0385811660248301529151600093929092169163f0b919ab9160448082019260209290919082900301818787803b158015610b3557600080fd5b505af1158015610b49573d6000803e3d6000fd5b505050506040513d6020811015610b5f57600080fd5b50511515610bb7576040805160e560020a62461bcd02815260206004820152600a60248201527f63616e4465706f73697400000000000000000000000000000000000000000000604482015290519081900360640190fd5b610bc18383611adc565b1515610c17576040805160e560020a62461bcd02815260206004820152600b60248201527f6d696e74206661696c6564000000000000000000000000000000000000000000604482015290519081900360640190fd5b604080518381529051600160a060020a0385169133917f49ce4363ef5b275d674087abdf95eb8cd16e36a9879efcc70fa0582078112f4f9181900360200190a350600192915050565b336000818152600360209081526040808320600160a060020a03871684529091528120549091610ca1918590610c9c908663ffffffff611a0416565b611b6c565b50600192915050565b600054600160a060020a03163314610cfa576040805160e560020a62461bcd02815260206004820152600e6024820152600080516020611f27833981519152604482015290519081900360640190fd5b600054600160a060020a0316ff5b600160a060020a031660009081526002602052604090205490565b60008082118015610d3c5750610d3833610d08565b8211155b8015610dc65750600560009054906101000a9004600160a060020a0316600160a060020a0316638312f1496040518163ffffffff1660e060020a028152600401602060405180830381600087803b158015610d9657600080fd5b505af1158015610daa573d6000803e3d6000fd5b505050506040513d6020811015610dc057600080fd5b50518210155b8015610ed65750600560009054906101000a9004600160a060020a0316600160a060020a031663e976d4316040518163ffffffff1660e060020a028152600401602060405180830381600087803b158015610e2057600080fd5b505af1158015610e34573d6000803e3d6000fd5b505050506040513d6020811015610e4a57600080fd5b50511580610ed65750600560009054906101000a9004600160a060020a0316600160a060020a031663e976d4316040518163ffffffff1660e060020a028152600401602060405180830381600087803b158015610ea657600080fd5b505af1158015610eba573d6000803e3d6000fd5b505050506040513d6020811015610ed057600080fd5b50518211155b1515610ee157600080fd5b600554604080517f19262d300000000000000000000000000000000000000000000000000000000081523360048201529051600160a060020a03909216916319262d30916024808201926020929091908290030181600087803b158015610f4757600080fd5b505af1158015610f5b573d6000803e3d6000fd5b505050506040513d6020811015610f7157600080fd5b50511515610f7e57600080fd5b610f883383611cd9565b1515610fde576040805160e560020a62461bcd02815260206004820152600b60248201527f6275726e206661696c6564000000000000000000000000000000000000000000604482015290519081900360640190fd5b6040805183815260006020820152815133927f24b91f4f47caf44230a57777a9be744924e82bf666f2d5702faf97df35e60f9f928290030190a2506001919050565b600554600160a060020a031681565b600154600160a060020a031633146110dd576040805160e560020a62461bcd02815260206004820152604860248201527f4f776e65643a204f6e6c79207573657220776974682070656e64696e67206f7760448201527f6e65727368697020616363657074616e63652063616e20616363657074206f7760648201527f6e65727368697021000000000000000000000000000000000000000000000000608482015290519081900360a40190fd5b60015460008054604051600160a060020a0393841693909116917f8be0079c531659141344cd1fd0a4f28419497f9722a3daafe3b4186f6b6457e091a3600180546000805473ffffffffffffffffffffffffffffffffffffffff19908116600160a060020a03841617909155169055565b600054600160a060020a031681565b60008054600160a060020a031633146111ae576040805160e560020a62461bcd02815260206004820152600e6024820152600080516020611f27833981519152604482015290519081900360640190fd5b604051600160a060020a03831690303180156108fc02916000818181858888f19350505050158015610ca1573d6000803e3d6000fd5b336000818152600360209081526040808320600160a060020a03871684529091528120549091610ca1918590610c9c908663ffffffff6119a416565b60008054600160a060020a03163314611271576040805160e560020a62461bcd02815260206004820152600e6024820152600080516020611f27833981519152604482015290519081900360640190fd5b60008054604080517fa9059cbb000000000000000000000000000000000000000000000000000000008152600160a060020a0392831660048201526024810186905290519186169263a9059cbb926044808401936020939083900390910190829087803b1580156112e157600080fd5b505af11580156112f5573d6000803e3d6000fd5b505050506040513d602081101561130b57600080fd5b50519392505050565b60008080808080600160a060020a038816151561133457600095506117e5565b600554604080517f6c85cf67000000000000000000000000000000000000000000000000000000008152336004820152600160a060020a038b8116602483015291519190921691636c85cf679160448083019260209291908290030181600087803b1580156113a257600080fd5b505af11580156113b6573d6000803e3d6000fd5b505050506040513d60208110156113cc57600080fd5b505115156113d957600080fd5b600160a060020a0388163314801561146c5750600560009054906101000a9004600160a060020a0316600160a060020a031663135aa7ef6040518163ffffffff1660e060020a028152600401602060405180830381600087803b15801561143f57600080fd5b505af1158015611453573d6000803e3d6000fd5b505050506040513d602081101561146957600080fd5b50515b156114815761147a87610d23565b95506117e5565b600654604080517f99a5d747000000000000000000000000000000000000000000000000000000008152600481018a90529051600160a060020a03909216916399a5d747916024808201926020929091908290030181600087803b1580156114e857600080fd5b505af11580156114fc573d6000803e3d6000fd5b505050506040513d602081101561151257600080fd5b5051600554604080517f603fdd01000000000000000000000000000000000000000000000000000000008152336004820152600160a060020a038c81166024830152915193985091169163603fdd01916044808201926020929091908290030181600087803b15801561158457600080fd5b505af1158015611598573d6000803e3d6000fd5b505050506040513d60208110156115ae57600080fd5b5051156115ba57600094505b6115ca878663ffffffff611a0416565b6115d333610d08565b10156115de57600080fd5b6115e88888611d69565b93506000600160a060020a0316600560009054906101000a9004600160a060020a0316600160a060020a031663e2d2f6346040518163ffffffff1660e060020a028152600401602060405180830381600087803b15801561164857600080fd5b505af115801561165c573d6000803e3d6000fd5b505050506040513d602081101561167257600080fd5b5051600160a060020a03161461170657600560009054906101000a9004600160a060020a0316600160a060020a031663e2d2f6346040518163ffffffff1660e060020a028152600401602060405180830381600087803b1580156116d557600080fd5b505af11580156116e9573d6000803e3d6000fd5b505050506040513d60208110156116ff57600080fd5b5051611713565b600054600160a060020a03165b925061171f8386611d69565b915083801561172b5750815b9050801515611784576040805160e560020a62461bcd02815260206004820152600f60248201527f7472616e73666572206661696c65640000000000000000000000000000000000604482015290519081900360640190fd5b82600160a060020a031688600160a060020a031633600160a060020a03167f13e03272a9354ecc84c6ab7776b34bbc80d3d0f69b2cb0dc5b0134e8d63c94478a89604051808381526020018281526020019250505060405180910390a48095505b505050505092915050565b600054600160a060020a03163314611840576040805160e560020a62461bcd02815260206004820152600e6024820152600080516020611f27833981519152604482015290519081900360640190fd5b6005805473ffffffffffffffffffffffffffffffffffffffff1916600160a060020a0392909216919091179055565b600654600160a060020a031681565b600154600160a060020a031681565b600061049e8383611a5f565b600054600160a060020a031633146118e9576040805160e560020a62461bcd02815260206004820152600e6024820152600080516020611f27833981519152604482015290519081900360640190fd5b6001805473ffffffffffffffffffffffffffffffffffffffff1916600160a060020a0392909216919091179055565b600054600160a060020a03163314611968576040805160e560020a62461bcd02815260206004820152600e6024820152600080516020611f27833981519152604482015290519081900360640190fd5b6006805473ffffffffffffffffffffffffffffffffffffffff1916600160a060020a0392909216919091179055565b6000610ca1338484611b6c565b6000828211156119fe576040805160e560020a62461bcd02815260206004820181905260248201527f536166654d6174684c69622e7375623a2072657175697265642062203c3d2061604482015290519081900360640190fd5b50900390565b818101828110156104a1576040805160e560020a62461bcd02815260206004820181905260248201527f536166654d6174684c69622e6164643a2072657175697265642063203e3d2061604482015290519081900360640190fd5b600160a060020a03918216600090815260036020908152604080832093909416825291909152205490565b6000611a97848484611d72565b600160a060020a038416600090815260036020908152604080832033808552925290912054611ad2918691610c9c908663ffffffff6119a416565b5060019392505050565b600160a060020a038216600090815260026020526040812054611b05908363ffffffff611a0416565b600160a060020a038416600090815260026020526040902055600454611b31908363ffffffff611a0416565b600455604080518381529051600160a060020a03851691600091600080516020611f478339815191529181900360200190a350600192915050565b600160a060020a0383161515611bf1576040805160e560020a62461bcd028152602060048201526024808201527f45524332303a20617070726f76652066726f6d20746865207a65726f2061646460448201527f7265737300000000000000000000000000000000000000000000000000000000606482015290519081900360840190fd5b600160a060020a0382161515611c77576040805160e560020a62461bcd02815260206004820152602260248201527f45524332303a20617070726f766520746f20746865207a65726f20616464726560448201527f7373000000000000000000000000000000000000000000000000000000000000606482015290519081900360840190fd5b600160a060020a03808416600081815260036020908152604080832094871680845294825291829020859055815185815291517f8c5be1e5ebec7d5bd14f71427d1e84f3dd0314c0f7b2291e5b200ac8c7c3b9259281900390910190a3505050565b600160a060020a038216600090815260026020526040812054611d02908363ffffffff6119a416565b600160a060020a038416600090815260026020526040902055600454611d2e908363ffffffff6119a416565b600455604080518381529051600091600160a060020a03861691600080516020611f478339815191529181900360200190a350600192915050565b6000610ca13384845b600160a060020a0383161515611df8576040805160e560020a62461bcd02815260206004820152602560248201527f45524332303a207472616e736665722066726f6d20746865207a65726f20616460448201527f6472657373000000000000000000000000000000000000000000000000000000606482015290519081900360840190fd5b600160a060020a0382161515611e7e576040805160e560020a62461bcd02815260206004820152602360248201527f45524332303a207472616e7366657220746f20746865207a65726f206164647260448201527f6573730000000000000000000000000000000000000000000000000000000000606482015290519081900360840190fd5b600160a060020a038316600090815260026020526040902054611ea7908263ffffffff6119a416565b600160a060020a038085166000908152600260205260408082209390935590841681522054611edc908263ffffffff611a0416565b600160a060020a038084166000818152600260209081526040918290209490945580518581529051919392871692600080516020611f4783398151915292918290030190a350505056004f776e6572207265717569726564000000000000000000000000000000000000ddf252ad1be2c89b69c2b068fc378daa952ba7f163c4a11628f55a4df523b3efa165627a7a72305820cce6e3a9a7ceb5b1ecf4a7681a972288640ba3793c62af186f6e76527cb7e5070029",
  "source": "pragma solidity ^0.4.24;\r\n\r\nimport \"./libs/SafeMathLib.sol\";\r\nimport \"./Owned.sol\";\r\nimport \"./Mortal.sol\";\r\nimport \"./interfaces/ITokensRecovery.sol\";\r\nimport \"./interfaces/IEtherReclaimer.sol\";\r\nimport \"./interfaces/IERC20.sol\";\r\nimport \"./interfaces/IConfig.sol\";\r\nimport \"./interfaces/IFees.sol\";\r\nimport \"./interfaces/IFiatToken.sol\";\r\n\r\nimport \"./ERC20Token.sol\";\r\nimport \"./MintableToken.sol\";\r\nimport \"./BurnableToken.sol\";\r\nimport \"./HasConfig.sol\";\r\nimport \"./HasFees.sol\";\r\n\r\n\r\n\r\n\r\n/**\r\n * @dev ERC20 Token, with symbol, name, standard and decimals among others.\r\n * Token units in this contract mean cents or pennies of the fiat currency it represents.\r\n */\r\ncontract FiatToken is IERC20\r\n\t\t, IFiatToken\r\n\t\t, Owned\r\n\t\t, Mortal\r\n\t\t, ERC20Token\r\n\t\t, MintableToken\r\n\t\t, BurnableToken\r\n\t\t, ITokensRecovery\r\n\t\t, IEtherReclaimer\r\n\t\t, HasConfig\r\n\t\t, HasFees\r\n{\r\n    using SafeMathLib for uint;\r\n\t\r\n\t\r\n\t\r\n    /**\r\n\t * @dev Constructor\r\n\t */\r\n    constructor(address _config, address _fees)\r\n\t\tOwned()\r\n\t\tHasConfig(_config)\r\n\t\tHasFees(_fees)\r\n\t\tERC20Token(0) // initial supply is zero\r\n\t\tpublic\r\n\t{\r\n    }\r\n\t\r\n\t\r\n\t\r\n    /**\r\n\t * @dev Transfer the balance from token owner's account to `to` account\r\n\t * - Owner's account must have sufficient balance to transfer\r\n\t * - 0 value transfers are allowed\r\n\t * @param to Address to transfer tokens to\r\n\t * @param tokens Amount of tokens to tranfer\r\n\t * @return bool\r\n\t */\r\n    function transfer(address to, uint tokens) public returns (bool)\r\n\t{\r\n\t\tif (to == address(0)) return false; //transfers to zero address are forbidden\r\n\t\trequire(config.canTransfer(msg.sender, to));\r\n\t\t\r\n\t\t// transfers to your own address are considered withdrawals (so they are allowed) ???\r\n\t\tif (to == msg.sender && config.transferToYourselfIsWidrawal()) {\r\n\t\t\treturn withdrawRequest(tokens);\r\n\t\t}\r\n\t\t\r\n\t\t//calculate transfer fees amount\r\n\t\t//uint transfer_fee_amount = calculateTransferFee(tokens);\r\n\t\tuint transfer_fee_amount = transferFees.calculateFee(tokens);\r\n\t\t\r\n\t\t//transfers involving admin wallets carry zero fees\r\n\t\tif (config.isNoFeeAddress2(msg.sender, to))\r\n\t\t\ttransfer_fee_amount = 0;\r\n\t\t\r\n\t\trequire(super.balanceOf(msg.sender) >= (tokens.add(transfer_fee_amount))); ///, \"Not enough tokens in sender's balance!\");\r\n\t\t\r\n        bool ok1 = super.transfer(to, tokens);\r\n\t\t\r\n\t\t//collect the transfer fees, if wallet is zero/invalid, contract owner gets the transfer fees\r\n\t\taddress feesCollector = (config.feesCollectorWallet() == address(0)) ? owner : config.feesCollectorWallet();\r\n\t\t\r\n\t\tbool ok2 = super.transfer(feesCollector, transfer_fee_amount);\r\n        bool ok = (ok1 && ok2);\r\n\t\trequire(ok, \"transfer failed\");\r\n\t\t\r\n\t\t// emit event for transfer fees collected, giving sender address, receiver address, amount sent, fee amount collected and current symbol.\r\n\t\temit TransferFeesCollected(msg.sender, to, tokens, feesCollector, transfer_fee_amount);\r\n\t\t\r\n        return ok;\r\n    }\r\n\t\r\n\t\r\n\t\r\n    /**\r\n\t * @dev Token owner can approve for `spender` to transferFrom(...) `tokens`\r\n\t * from the token owner's account\r\n\t *\r\n\t * https://github.com/ethereum/EIPs/blob/master/EIPS/eip-20-token-standard.md\r\n\t * https://eips.ethereum.org/EIPS/eip-20\r\n\t * recommends that there are no checks for the approval double-spend attack\r\n\t * as this should be implemented in user interfaces\r\n\t * @param spender Spender address user approves to spend tokens on his behalf\r\n\t * @param tokens Amount of tokens spender is approved to spend/transfer\r\n\t * @return bool\r\n\t */\r\n    function approve(address spender, uint tokens) public returns (bool)\r\n\t{\r\n\t\trequire(config.canApprove(msg.sender, spender));\r\n\t\treturn super.approve(spender, tokens);\r\n    }\r\n\r\n\r\n\r\n    /**\r\n\t * @dev Transfer `tokens` from the `from` account to the `to` account\r\n\t *\r\n\t * The calling account must already have sufficient tokens approve(...)-d\r\n\t * for spending from the `from` account and\r\n\t * - From account must have sufficient balance to transfer\r\n\t * - Spender must have sufficient allowance to transfer\r\n\t * - 0 value transfers are allowed\r\n\t * *** The user executing the function pays the transfer fees, not the funds owner\r\n\t * @param from Address approved spender tranfers tokens from\r\n\t * @param to Address approved spender tranfers to\r\n\t * @param tokens Amount of tokens approved to transfer\r\n\t * @return bool\r\n\t */\r\n    function transferFrom(address from, address to, uint tokens) public returns (bool)\r\n\t{\r\n\t\tif (to == address(0)) return false;\r\n\t\trequire(config.canTransferFrom(msg.sender, from, to));\r\n\t\t\r\n\t\t//calculate transfer fees amount\r\n\t\tuint transfer_fee_amount = transferFees.calculateFee(tokens);\r\n\t\t\r\n\t\t//transfers involving admin wallets carry zero fees\r\n\t\tif (config.isNoFeeAddress3(msg.sender, from, to))\r\n\t\t\ttransfer_fee_amount = 0;\r\n\t\t\r\n\t\tuint _tokensWithFee = tokens.add(transfer_fee_amount);\r\n\t\trequire ((super.balanceOf(from) >= _tokensWithFee) && (super.allowance(from, msg.sender) >= _tokensWithFee));\r\n\t\t\r\n\t\tbool ok1 = super.transferFrom(from, to, tokens);\r\n\t\t\r\n\t\t//collect the transfer fees, if wallet is zero/invalid, contract owner gets the transfer fees\r\n\t\taddress feesCollector = (config.feesCollectorWallet() == address(0)) ? owner : config.feesCollectorWallet();\r\n\t\t\r\n\t\tbool ok2 = super.transferFrom(from, feesCollector, transfer_fee_amount);\r\n\t\trequire(ok1 && ok2, \"transferFrom failed\");\r\n\t\t\r\n\t\tbool ok = (ok1 && ok2);\r\n\t\tif (ok) {\r\n\t\t\t// emit event for transfer fees collected, giving sender address, receiver address, amount sent, fee amount collected and current symbol.\r\n\t\t\temit TransferFeesCollected(from, to, tokens, feesCollector, transfer_fee_amount);\r\n\t\t}\r\n\t\t\r\n\t\treturn ok;\r\n    }\r\n\r\n\r\n\r\n    /**\r\n\t * @dev Returns the amount of tokens approved by the owner that can be\r\n\t * transferred to the spender's account\r\n\t * @param tokenOwner Address of token owner we check for allowance on\r\n\t * @param spender Address of spender that token owner approved to spend on his behalf\r\n\t * @return uint\r\n\t */\r\n    function allowance(address tokenOwner, address spender) public view returns (uint remaining) {\r\n\t\treturn super.allowance(tokenOwner, spender);\r\n    }\r\n\t\r\n\t\r\n\t\r\n\t///*** BlockchainBridge contract functions\r\n\t\r\n\t/**\r\n\t * @dev Function executed by admin, after funds were received by bank wire or any other accepted method, admin deposits equal tokens to user address.\r\n\t * @param _to User address to deposit tokens to\r\n\t * @param _amount Amount of tokens to deposit to user address\r\n\t * @return bool\r\n\t */\r\n\tfunction depositAccept(address _to, uint _amount) public returns (bool)\r\n\t{\r\n\t\trequire(config.canDeposit(msg.sender, _to), \"canDeposit\");\r\n\t\t\r\n\t\t// create tokens as they were deposited as reserves\r\n\t\trequire(super.mint(_to, _amount), \"mint failed\");\r\n\t\t//emit DepositAccepted event\r\n\t\temit DepositAccepted(msg.sender, _to, _amount);\r\n\t\treturn true;\r\n    }\r\n\t\r\n\t\r\n\t\r\n\t/**\r\n\t * @dev Function executed by user asking for a withdrawal, withdrawal fee (if any) is substracted from withdrawal amount\r\n\t * e.g. if user withdraws $1000 he pays $1 from that amount as fee (for withdrawal fee = 0.1%)\r\n\t * @param _amount Amount of tokens to withdraw\r\n\t * @return bool\r\n\t */\r\n\tfunction withdrawRequest(uint _amount) public returns (bool)\r\n\t{\r\n\t\trequire((_amount > 0 && _amount <= super.balanceOf(msg.sender)) && (_amount >= config.minWithdrawalAmount())\r\n\t\t\t&& (config.maxWithdrawalAmount() == 0 || _amount <= config.maxWithdrawalAmount()));\r\n\t\trequire(config.canWithdraw(msg.sender));\r\n\t\t\r\n\t\t// destroy tokens as they were withdrawn\r\n\t\trequire(super.burn(msg.sender, _amount), \"burn failed\");\r\n\t\t// emit event for withdrawal.\r\n\t\temit WithdrawalRequested(msg.sender, _amount, 0 /*zero withdrawal fee*/);\r\n\t\treturn true;\r\n\t}\r\n\t\r\n\t///*** BlockchainBridge contract functions\r\n\t\r\n\t\r\n\t\r\n\t///*** BlacklistOperations contract functions\r\n\t\r\n\tfunction wipeoutAddressBalance(address _account) public returns (bool)\r\n\t{\r\n\t\trequire(config.canWipeoutAddressBalance(msg.sender, _account), \"canWipeoutAddressBalance failed\");\r\n\t\t\r\n\t\tuint _amount = super.balanceOf(_account);\r\n\t\tbalances[_account] = 0;\r\n\t\t// substract amount from total supply\r\n\t\t_totalSupply = _totalSupply.sub(_amount);\r\n\t\temit Transfer(_account, address(0), _amount);\r\n\t\temit WipeoutBlacklistedAddress(msg.sender, _account, _amount);\r\n\t\treturn true;\r\n\t}\r\n\t\r\n\t///*** BlacklistOperations contract functions\r\n\t\r\n\t\r\n\t\r\n    /**\r\n\t * Accept ETH donations\r\n\t */\r\n    function () external payable {\r\n    }\r\n\t\r\n\t\r\n\t\r\n\t/**\r\n\t * @dev Send all eth balance in the contract to another address\r\n\t * @param _to Address to send contract ether balance to\r\n\t * @return bool\r\n\t */\r\n    function reclaimEther(address _to) external onlyOwner returns (bool) {\r\n        _to.transfer(address(this).balance);\r\n\t\treturn true;\r\n    }\r\n\t\r\n\t\r\n\t\r\n    /**\r\n\t * @dev Owner can transfer out any accidentally sent ERC20 tokens\r\n\t * @param tokenAddress Token contract address we want to recover lost tokens from.\r\n\t * @param tokens Amount of tokens to be recovered, usually the same as the balance of this contract.\r\n\t * @return bool\r\n\t */\r\n    function recoverAnyERC20Token(address tokenAddress, uint tokens) external onlyOwner returns (bool ok) {\r\n\t\tok = IERC20(tokenAddress).transfer(owner, tokens);\r\n    }\r\n\r\n}",
  "sourcePath": "C:\\Users\\Homeuser\\Desktop\\FiatechFiatCurrencyToken\\contracts\\FiatToken.sol",
  "compiler": {
    "name": "solc",
    "version": "0.4.24+commit.e67f0147.Emscripten.clang"
  },
  "schemaVersion": "3.0.5",
  "updatedAt": "2019-11-28T22:36:38.637Z",
  "devdoc": {
    "methods": {
      "acceptOwnership()": {
        "details": "New owner pending to accept ownership executes this function to confirm his ownership.\r"
      },
      "allowance(address,address)": {
        "details": "Returns the amount of tokens approved by the owner that can be\r transferred to the spender's account\r",
        "params": {
          "spender": "Address of spender that token owner approved to spend on his behalf\r",
          "tokenOwner": "Address of token owner we check for allowance on\r"
        },
        "return": "uint\r"
      },
      "approve(address,uint256)": {
        "details": "Token owner can approve for `spender` to transferFrom(...) `tokens`\r from the token owner's account\r \t * https://github.com/ethereum/EIPs/blob/master/EIPS/eip-20-token-standard.md\r https://eips.ethereum.org/EIPS/eip-20\r recommends that there are no checks for the approval double-spend attack\r as this should be implemented in user interfaces\r",
        "params": {
          "spender": "Spender address user approves to spend tokens on his behalf\r",
          "tokens": "Amount of tokens spender is approved to spend/transfer\r"
        },
        "return": "bool\r"
      },
      "decreaseAllowance(address,uint256)": {
        "details": "Atomically decreases the allowance granted to `spender` by the caller.\r      * This is an alternative to {approve} that can be used as a mitigation for\r problems described in {IERC20-approve}.\r      * Emits an {Approval} event indicating the updated allowance.\r      * Requirements:\r      * - `spender` cannot be the zero address.\r - `spender` must have allowance for the caller of at least\r `subtractedValue`.\r"
      },
      "depositAccept(address,uint256)": {
        "details": "Function executed by admin, after funds were received by bank wire or any other accepted method, admin deposits equal tokens to user address.\r",
        "params": {
          "_amount": "Amount of tokens to deposit to user address\r",
          "_to": "User address to deposit tokens to\r"
        },
        "return": "bool\r"
      },
      "increaseAllowance(address,uint256)": {
        "details": "Atomically increases the allowance granted to `spender` by the caller.\r      * This is an alternative to {approve} that can be used as a mitigation for\r problems described in {IERC20-approve}.\r      * Emits an {Approval} event indicating the updated allowance.\r      * Requirements:\r      * - `spender` cannot be the zero address.\r"
      },
      "kill()": {
        "details": "Destroy contract eliminating it from the blockchain\r"
      },
      "reclaimEther(address)": {
        "details": "Send all eth balance in the contract to another address\r",
        "params": {
          "_to": "Address to send contract ether balance to\r"
        },
        "return": "bool\r"
      },
      "recoverAnyERC20Token(address,uint256)": {
        "details": "Owner can transfer out any accidentally sent ERC20 tokens\r",
        "params": {
          "tokenAddress": "Token contract address we want to recover lost tokens from.\r",
          "tokens": "Amount of tokens to be recovered, usually the same as the balance of this contract.\r"
        },
        "return": "bool\r"
      },
      "transfer(address,uint256)": {
        "details": "Transfer the balance from token owner's account to `to` account\r - Owner's account must have sufficient balance to transfer\r - 0 value transfers are allowed\r",
        "params": {
          "to": "Address to transfer tokens to\r",
          "tokens": "Amount of tokens to tranfer\r"
        },
        "return": "bool\r"
      },
      "transferFrom(address,address,uint256)": {
        "details": "Transfer `tokens` from the `from` account to the `to` account\r \t * The calling account must already have sufficient tokens approve(...)-d\r for spending from the `from` account and\r - From account must have sufficient balance to transfer\r - Spender must have sufficient allowance to transfer\r - 0 value transfers are allowed\r *** The user executing the function pays the transfer fees, not the funds owner\r",
        "params": {
          "from": "Address approved spender tranfers tokens from\r",
          "to": "Address approved spender tranfers to\r",
          "tokens": "Amount of tokens approved to transfer\r"
        },
        "return": "bool\r"
      },
      "transferOwnership(address)": {
        "details": "Transfer ownership function\r",
        "params": {
          "_newOwner": "New owner address acquiring ownership of contract\r"
        }
      },
      "withdrawRequest(uint256)": {
        "details": "Function executed by user asking for a withdrawal, withdrawal fee (if any) is substracted from withdrawal amount\r e.g. if user withdraws $1000 he pays $1 from that amount as fee (for withdrawal fee = 0.1%)\r",
        "params": {
          "_amount": "Amount of tokens to withdraw\r"
        },
        "return": "bool\r"
      }
    }
  },
  "userdoc": {
    "methods": {
      "wipeoutAddressBalance(address)": {
        "notice": "*** BlockchainBridge contract functions\r *** BlacklistOperations contract functions\r"
      }
    }
  }
}