{
  "contractName": "USDf",
  "abi": [
    {
      "constant": false,
      "inputs": [
        {
          "name": "spender",
          "type": "address"
        },
        {
          "name": "tokens",
          "type": "uint256"
        }
      ],
      "name": "approve",
      "outputs": [
        {
          "name": "",
          "type": "bool"
        }
      ],
      "payable": false,
      "stateMutability": "nonpayable",
      "type": "function",
      "signature": "0x095ea7b3"
    },
    {
      "constant": false,
      "inputs": [
        {
          "name": "_account",
          "type": "address"
        }
      ],
      "name": "wipeoutAddressBalance",
      "outputs": [
        {
          "name": "",
          "type": "bool"
        }
      ],
      "payable": false,
      "stateMutability": "nonpayable",
      "type": "function",
      "signature": "0x119b2abb"
    },
    {
      "constant": true,
      "inputs": [],
      "name": "totalSupply",
      "outputs": [
        {
          "name": "",
          "type": "uint256"
        }
      ],
      "payable": false,
      "stateMutability": "view",
      "type": "function",
      "signature": "0x18160ddd"
    },
    {
      "constant": false,
      "inputs": [
        {
          "name": "from",
          "type": "address"
        },
        {
          "name": "to",
          "type": "address"
        },
        {
          "name": "tokens",
          "type": "uint256"
        }
      ],
      "name": "transferFrom",
      "outputs": [
        {
          "name": "",
          "type": "bool"
        }
      ],
      "payable": false,
      "stateMutability": "nonpayable",
      "type": "function",
      "signature": "0x23b872dd"
    },
    {
      "constant": false,
      "inputs": [
        {
          "name": "_to",
          "type": "address"
        },
        {
          "name": "_amount",
          "type": "uint256"
        }
      ],
      "name": "depositAccept",
      "outputs": [
        {
          "name": "",
          "type": "bool"
        }
      ],
      "payable": false,
      "stateMutability": "nonpayable",
      "type": "function",
      "signature": "0x29d6b67a"
    },
    {
      "constant": false,
      "inputs": [
        {
          "name": "spender",
          "type": "address"
        },
        {
          "name": "addedValue",
          "type": "uint256"
        }
      ],
      "name": "increaseAllowance",
      "outputs": [
        {
          "name": "",
          "type": "bool"
        }
      ],
      "payable": false,
      "stateMutability": "nonpayable",
      "type": "function",
      "signature": "0x39509351"
    },
    {
      "constant": false,
      "inputs": [],
      "name": "kill",
      "outputs": [],
      "payable": false,
      "stateMutability": "nonpayable",
      "type": "function",
      "signature": "0x41c0e1b5"
    },
    {
      "constant": true,
      "inputs": [
        {
          "name": "_owner",
          "type": "address"
        }
      ],
      "name": "balanceOf",
      "outputs": [
        {
          "name": "balance",
          "type": "uint256"
        }
      ],
      "payable": false,
      "stateMutability": "view",
      "type": "function",
      "signature": "0x70a08231"
    },
    {
      "constant": false,
      "inputs": [
        {
          "name": "_amount",
          "type": "uint256"
        }
      ],
      "name": "withdrawRequest",
      "outputs": [
        {
          "name": "",
          "type": "bool"
        }
      ],
      "payable": false,
      "stateMutability": "nonpayable",
      "type": "function",
      "signature": "0x74899a7e"
    },
    {
      "constant": true,
      "inputs": [],
      "name": "config",
      "outputs": [
        {
          "name": "",
          "type": "address"
        }
      ],
      "payable": false,
      "stateMutability": "view",
      "type": "function",
      "signature": "0x79502c55"
    },
    {
      "constant": false,
      "inputs": [],
      "name": "acceptOwnership",
      "outputs": [],
      "payable": false,
      "stateMutability": "nonpayable",
      "type": "function",
      "signature": "0x79ba5097"
    },
    {
      "constant": true,
      "inputs": [],
      "name": "owner",
      "outputs": [
        {
          "name": "",
          "type": "address"
        }
      ],
      "payable": false,
      "stateMutability": "view",
      "type": "function",
      "signature": "0x8da5cb5b"
    },
    {
      "constant": false,
      "inputs": [
        {
          "name": "_to",
          "type": "address"
        }
      ],
      "name": "reclaimEther",
      "outputs": [
        {
          "name": "",
          "type": "bool"
        }
      ],
      "payable": false,
      "stateMutability": "nonpayable",
      "type": "function",
      "signature": "0x9a6a30a4"
    },
    {
      "constant": false,
      "inputs": [
        {
          "name": "spender",
          "type": "address"
        },
        {
          "name": "subtractedValue",
          "type": "uint256"
        }
      ],
      "name": "decreaseAllowance",
      "outputs": [
        {
          "name": "",
          "type": "bool"
        }
      ],
      "payable": false,
      "stateMutability": "nonpayable",
      "type": "function",
      "signature": "0xa457c2d7"
    },
    {
      "constant": false,
      "inputs": [
        {
          "name": "tokenAddress",
          "type": "address"
        },
        {
          "name": "tokens",
          "type": "uint256"
        }
      ],
      "name": "recoverAnyERC20Token",
      "outputs": [
        {
          "name": "ok",
          "type": "bool"
        }
      ],
      "payable": false,
      "stateMutability": "nonpayable",
      "type": "function",
      "signature": "0xa50d4005"
    },
    {
      "constant": false,
      "inputs": [
        {
          "name": "to",
          "type": "address"
        },
        {
          "name": "tokens",
          "type": "uint256"
        }
      ],
      "name": "transfer",
      "outputs": [
        {
          "name": "",
          "type": "bool"
        }
      ],
      "payable": false,
      "stateMutability": "nonpayable",
      "type": "function",
      "signature": "0xa9059cbb"
    },
    {
      "constant": false,
      "inputs": [
        {
          "name": "_config",
          "type": "address"
        }
      ],
      "name": "setIConfig",
      "outputs": [],
      "payable": false,
      "stateMutability": "nonpayable",
      "type": "function",
      "signature": "0xbb3954fd"
    },
    {
      "constant": true,
      "inputs": [],
      "name": "transferFees",
      "outputs": [
        {
          "name": "",
          "type": "address"
        }
      ],
      "payable": false,
      "stateMutability": "view",
      "type": "function",
      "signature": "0xc2fbe7bc"
    },
    {
      "constant": true,
      "inputs": [],
      "name": "newOwner",
      "outputs": [
        {
          "name": "",
          "type": "address"
        }
      ],
      "payable": false,
      "stateMutability": "view",
      "type": "function",
      "signature": "0xd4ee1d90"
    },
    {
      "constant": true,
      "inputs": [
        {
          "name": "tokenOwner",
          "type": "address"
        },
        {
          "name": "spender",
          "type": "address"
        }
      ],
      "name": "allowance",
      "outputs": [
        {
          "name": "remaining",
          "type": "uint256"
        }
      ],
      "payable": false,
      "stateMutability": "view",
      "type": "function",
      "signature": "0xdd62ed3e"
    },
    {
      "constant": false,
      "inputs": [
        {
          "name": "_newOwner",
          "type": "address"
        }
      ],
      "name": "transferOwnership",
      "outputs": [],
      "payable": false,
      "stateMutability": "nonpayable",
      "type": "function",
      "signature": "0xf2fde38b"
    },
    {
      "constant": false,
      "inputs": [
        {
          "name": "_fees",
          "type": "address"
        }
      ],
      "name": "setIFees",
      "outputs": [],
      "payable": false,
      "stateMutability": "nonpayable",
      "type": "function",
      "signature": "0xffa0b8e6"
    },
    {
      "inputs": [
        {
          "name": "_config",
          "type": "address"
        },
        {
          "name": "_fees",
          "type": "address"
        }
      ],
      "payable": false,
      "stateMutability": "nonpayable",
      "type": "constructor",
      "signature": "constructor"
    },
    {
      "payable": true,
      "stateMutability": "payable",
      "type": "fallback"
    },
    {
      "anonymous": false,
      "inputs": [
        {
          "indexed": true,
          "name": "_from",
          "type": "address"
        },
        {
          "indexed": true,
          "name": "_to",
          "type": "address"
        }
      ],
      "name": "OwnershipTransferred",
      "type": "event",
      "signature": "0x8be0079c531659141344cd1fd0a4f28419497f9722a3daafe3b4186f6b6457e0"
    },
    {
      "anonymous": false,
      "inputs": [
        {
          "indexed": true,
          "name": "from",
          "type": "address"
        },
        {
          "indexed": true,
          "name": "to",
          "type": "address"
        },
        {
          "indexed": false,
          "name": "transferTokens",
          "type": "uint256"
        },
        {
          "indexed": true,
          "name": "feesCollector",
          "type": "address"
        },
        {
          "indexed": false,
          "name": "transferTokensFee",
          "type": "uint256"
        }
      ],
      "name": "TransferFeesCollected",
      "type": "event",
      "signature": "0x13e03272a9354ecc84c6ab7776b34bbc80d3d0f69b2cb0dc5b0134e8d63c9447"
    },
    {
      "anonymous": false,
      "inputs": [
        {
          "indexed": true,
          "name": "_admin",
          "type": "address"
        },
        {
          "indexed": true,
          "name": "_to",
          "type": "address"
        },
        {
          "indexed": false,
          "name": "_amount",
          "type": "uint256"
        }
      ],
      "name": "DepositAccepted",
      "type": "event",
      "signature": "0x49ce4363ef5b275d674087abdf95eb8cd16e36a9879efcc70fa0582078112f4f"
    },
    {
      "anonymous": false,
      "inputs": [
        {
          "indexed": true,
          "name": "_from",
          "type": "address"
        },
        {
          "indexed": false,
          "name": "_amount",
          "type": "uint256"
        },
        {
          "indexed": false,
          "name": "_withdrawalTokensFee",
          "type": "uint256"
        }
      ],
      "name": "WithdrawalRequested",
      "type": "event",
      "signature": "0x24b91f4f47caf44230a57777a9be744924e82bf666f2d5702faf97df35e60f9f"
    },
    {
      "anonymous": false,
      "inputs": [
        {
          "indexed": true,
          "name": "_admin",
          "type": "address"
        },
        {
          "indexed": true,
          "name": "_account",
          "type": "address"
        },
        {
          "indexed": false,
          "name": "_value",
          "type": "uint256"
        }
      ],
      "name": "WipeoutBlacklistedAddress",
      "type": "event",
      "signature": "0xc2f4614ec5281d347757d098f09aec9387f971dfa186d048e9a2c9c9b38b6584"
    },
    {
      "anonymous": false,
      "inputs": [
        {
          "indexed": true,
          "name": "from",
          "type": "address"
        },
        {
          "indexed": true,
          "name": "to",
          "type": "address"
        },
        {
          "indexed": false,
          "name": "tokens",
          "type": "uint256"
        }
      ],
      "name": "Transfer",
      "type": "event",
      "signature": "0xddf252ad1be2c89b69c2b068fc378daa952ba7f163c4a11628f55a4df523b3ef"
    },
    {
      "anonymous": false,
      "inputs": [
        {
          "indexed": true,
          "name": "owner",
          "type": "address"
        },
        {
          "indexed": true,
          "name": "spender",
          "type": "address"
        },
        {
          "indexed": false,
          "name": "tokens",
          "type": "uint256"
        }
      ],
      "name": "Approval",
      "type": "event",
      "signature": "0x8c5be1e5ebec7d5bd14f71427d1e84f3dd0314c0f7b2291e5b200ac8c7c3b925"
    },
    {
      "constant": true,
      "inputs": [],
      "name": "decimals",
      "outputs": [
        {
          "name": "",
          "type": "uint8"
        }
      ],
      "payable": false,
      "stateMutability": "pure",
      "type": "function",
      "signature": "0x313ce567"
    },
    {
      "constant": true,
      "inputs": [],
      "name": "name",
      "outputs": [
        {
          "name": "",
          "type": "string"
        }
      ],
      "payable": false,
      "stateMutability": "pure",
      "type": "function",
      "signature": "0x06fdde03"
    },
    {
      "constant": true,
      "inputs": [],
      "name": "symbol",
      "outputs": [
        {
          "name": "",
          "type": "string"
        }
      ],
      "payable": false,
      "stateMutability": "pure",
      "type": "function",
      "signature": "0x95d89b41"
    },
    {
      "constant": true,
      "inputs": [],
      "name": "version",
      "outputs": [
        {
          "name": "",
          "type": "string"
        }
      ],
      "payable": false,
      "stateMutability": "pure",
      "type": "function",
      "signature": "0x54fd4d50"
    }
  ],
  "bytecode": "0x60806040523480156200001157600080fd5b5060405160408062002353833981016040819052815160209092015160008054600160a060020a031916331780825591928492849283928592600160a060020a03169082907f8be0079c531659141344cd1fd0a4f28419497f9722a3daafe3b4186f6b6457e0908290a3600481905533600090815260026020526040902055620000a481640100000000620000c4810204565b50620000b98164010000000062000160810204565b5050505050620001fc565b600054600160a060020a031633146200013e57604080517f08c379a000000000000000000000000000000000000000000000000000000000815260206004820152600e60248201527f4f776e6572207265717569726564000000000000000000000000000000000000604482015290519081900360640190fd5b60058054600160a060020a031916600160a060020a0392909216919091179055565b600054600160a060020a03163314620001da57604080517f08c379a000000000000000000000000000000000000000000000000000000000815260206004820152600e60248201527f4f776e6572207265717569726564000000000000000000000000000000000000604482015290519081900360640190fd5b60068054600160a060020a031916600160a060020a0392909216919091179055565b612147806200020c6000396000f30060806040526004361061013a5763ffffffff60e060020a60003504166306fdde03811461013c578063095ea7b3146101c6578063119b2abb146101fe57806318160ddd1461021f57806323b872dd1461024657806329d6b67a14610270578063313ce5671461029457806339509351146102bf57806341c0e1b5146102e357806354fd4d50146102f857806370a082311461030d57806374899a7e1461032e57806379502c551461034657806379ba5097146103775780638da5cb5b1461038c57806395d89b41146103a15780639a6a30a4146103b6578063a457c2d7146103d7578063a50d4005146103fb578063a9059cbb1461041f578063bb3954fd14610443578063c2fbe7bc14610464578063d4ee1d9014610479578063dd62ed3e1461048e578063f2fde38b146104b5578063ffa0b8e6146104d6575b005b34801561014857600080fd5b506101516104f7565b6040805160208082528351818301528351919283929083019185019080838360005b8381101561018b578181015183820152602001610173565b50505050905090810190601f1680156101b85780820380516001836020036101000a031916815260200191505b509250505060405180910390f35b3480156101d257600080fd5b506101ea600160a060020a036004351660243561052e565b604080519115158252519081900360200190f35b34801561020a57600080fd5b506101ea600160a060020a03600435166105e9565b34801561022b57600080fd5b5061023461078d565b60408051918252519081900360200190f35b34801561025257600080fd5b506101ea600160a060020a0360043581169060243516604435610793565b34801561027c57600080fd5b506101ea600160a060020a0360043516602435610c06565b3480156102a057600080fd5b506102a9610da2565b6040805160ff9092168252519081900360200190f35b3480156102cb57600080fd5b506101ea600160a060020a0360043516602435610da7565b3480156102ef57600080fd5b5061013a610df1565b34801561030457600080fd5b50610151610e4f565b34801561031957600080fd5b50610234600160a060020a0360043516610e86565b34801561033a57600080fd5b506101ea600435610ea1565b34801561035257600080fd5b5061035b61119e565b60408051600160a060020a039092168252519081900360200190f35b34801561038357600080fd5b5061013a6111ad565b34801561039857600080fd5b5061035b6112cc565b3480156103ad57600080fd5b506101516112db565b3480156103c257600080fd5b506101ea600160a060020a0360043516611312565b3480156103e357600080fd5b506101ea600160a060020a0360043516602435611399565b34801561040757600080fd5b506101ea600160a060020a03600435166024356113d5565b34801561042b57600080fd5b506101ea600160a060020a03600435166024356114c9565b34801561044f57600080fd5b5061013a600160a060020a03600435166119a5565b34801561047057600080fd5b5061035b611a24565b34801561048557600080fd5b5061035b611a33565b34801561049a57600080fd5b50610234600160a060020a0360043581169060243516611a42565b3480156104c157600080fd5b5061013a600160a060020a0360043516611a4e565b3480156104e257600080fd5b5061013a600160a060020a0360043516611acd565b60408051808201909152600e81527f555344206669617420746f6b656e000000000000000000000000000000000000602082015290565b600554604080517fdf6cab40000000000000000000000000000000000000000000000000000000008152336004820152600160a060020a0385811660248301529151600093929092169163df6cab409160448082019260209290919082900301818787803b15801561059f57600080fd5b505af11580156105b3573d6000803e3d6000fd5b505050506040513d60208110156105c957600080fd5b505115156105d657600080fd5b6105e08383611b4c565b90505b92915050565b600554604080517f85a096f5000000000000000000000000000000000000000000000000000000008152336004820152600160a060020a0384811660248301529151600093849316916385a096f591604480830192602092919082900301818787803b15801561065857600080fd5b505af115801561066c573d6000803e3d6000fd5b505050506040513d602081101561068257600080fd5b505115156106da576040805160e560020a62461bcd02815260206004820152601f60248201527f63616e576970656f75744164647265737342616c616e6365206661696c656400604482015290519081900360640190fd5b6106e383610e86565b600160a060020a038416600090815260026020526040812055600454909150610712908263ffffffff611b5916565b600455604080518281529051600091600160a060020a038616916000805160206120fc8339815191529181900360200190a3604080518281529051600160a060020a0385169133917fc2f4614ec5281d347757d098f09aec9387f971dfa186d048e9a2c9c9b38b65849181900360200190a350600192915050565b60045490565b6000808080808080600160a060020a03891615156107b45760009650610bf9565b600554604080517fcef701f2000000000000000000000000000000000000000000000000000000008152336004820152600160a060020a038d811660248301528c811660448301529151919092169163cef701f29160648083019260209291908290030181600087803b15801561082a57600080fd5b505af115801561083e573d6000803e3d6000fd5b505050506040513d602081101561085457600080fd5b5051151561086157600080fd5b600654604080517f99a5d747000000000000000000000000000000000000000000000000000000008152600481018b90529051600160a060020a03909216916399a5d747916024808201926020929091908290030181600087803b1580156108c857600080fd5b505af11580156108dc573d6000803e3d6000fd5b505050506040513d60208110156108f257600080fd5b5051600554604080517fe9ea2e4c000000000000000000000000000000000000000000000000000000008152336004820152600160a060020a038e811660248301528d81166044830152915193995091169163e9ea2e4c916064808201926020929091908290030181600087803b15801561096c57600080fd5b505af1158015610980573d6000803e3d6000fd5b505050506040513d602081101561099657600080fd5b5051156109a257600095505b6109b2888763ffffffff611bb916565b9450846109be8b610e86565b101580156109d55750846109d28b33611c14565b10155b15156109e057600080fd5b6109eb8a8a8a611c3f565b93506000600160a060020a0316600560009054906101000a9004600160a060020a0316600160a060020a031663e2d2f6346040518163ffffffff1660e060020a028152600401602060405180830381600087803b158015610a4b57600080fd5b505af1158015610a5f573d6000803e3d6000fd5b505050506040513d6020811015610a7557600080fd5b5051600160a060020a031614610b0957600560009054906101000a9004600160a060020a0316600160a060020a031663e2d2f6346040518163ffffffff1660e060020a028152600401602060405180830381600087803b158015610ad857600080fd5b505af1158015610aec573d6000803e3d6000fd5b505050506040513d6020811015610b0257600080fd5b5051610b16565b600054600160a060020a03165b9250610b238a8488611c3f565b9150838015610b2f5750815b1515610b85576040805160e560020a62461bcd02815260206004820152601360248201527f7472616e7366657246726f6d206661696c656400000000000000000000000000604482015290519081900360640190fd5b838015610b8f5750815b90508015610bf55782600160a060020a031689600160a060020a03168b600160a060020a03167f13e03272a9354ecc84c6ab7776b34bbc80d3d0f69b2cb0dc5b0134e8d63c94478b8a604051808381526020018281526020019250505060405180910390a45b8096505b5050505050509392505050565b600554604080517ff0b919ab000000000000000000000000000000000000000000000000000000008152336004820152600160a060020a0385811660248301529151600093929092169163f0b919ab9160448082019260209290919082900301818787803b158015610c7757600080fd5b505af1158015610c8b573d6000803e3d6000fd5b505050506040513d6020811015610ca157600080fd5b50511515610cf9576040805160e560020a62461bcd02815260206004820152600a60248201527f63616e4465706f73697400000000000000000000000000000000000000000000604482015290519081900360640190fd5b610d038383611c91565b1515610d59576040805160e560020a62461bcd02815260206004820152600b60248201527f6d696e74206661696c6564000000000000000000000000000000000000000000604482015290519081900360640190fd5b604080518381529051600160a060020a0385169133917f49ce4363ef5b275d674087abdf95eb8cd16e36a9879efcc70fa0582078112f4f9181900360200190a350600192915050565b600290565b336000818152600360209081526040808320600160a060020a03871684529091528120549091610de8918590610de3908663ffffffff611bb916565b611d21565b50600192915050565b600054600160a060020a03163314610e41576040805160e560020a62461bcd02815260206004820152600e60248201526000805160206120dc833981519152604482015290519081900360640190fd5b600054600160a060020a0316ff5b60408051808201909152600481527f76312e3000000000000000000000000000000000000000000000000000000000602082015290565b600160a060020a031660009081526002602052604090205490565b60008082118015610eba5750610eb633610e86565b8211155b8015610f445750600560009054906101000a9004600160a060020a0316600160a060020a0316638312f1496040518163ffffffff1660e060020a028152600401602060405180830381600087803b158015610f1457600080fd5b505af1158015610f28573d6000803e3d6000fd5b505050506040513d6020811015610f3e57600080fd5b50518210155b80156110545750600560009054906101000a9004600160a060020a0316600160a060020a031663e976d4316040518163ffffffff1660e060020a028152600401602060405180830381600087803b158015610f9e57600080fd5b505af1158015610fb2573d6000803e3d6000fd5b505050506040513d6020811015610fc857600080fd5b505115806110545750600560009054906101000a9004600160a060020a0316600160a060020a031663e976d4316040518163ffffffff1660e060020a028152600401602060405180830381600087803b15801561102457600080fd5b505af1158015611038573d6000803e3d6000fd5b505050506040513d602081101561104e57600080fd5b50518211155b151561105f57600080fd5b600554604080517f19262d300000000000000000000000000000000000000000000000000000000081523360048201529051600160a060020a03909216916319262d30916024808201926020929091908290030181600087803b1580156110c557600080fd5b505af11580156110d9573d6000803e3d6000fd5b505050506040513d60208110156110ef57600080fd5b505115156110fc57600080fd5b6111063383611e8e565b151561115c576040805160e560020a62461bcd02815260206004820152600b60248201527f6275726e206661696c6564000000000000000000000000000000000000000000604482015290519081900360640190fd5b6040805183815260006020820152815133927f24b91f4f47caf44230a57777a9be744924e82bf666f2d5702faf97df35e60f9f928290030190a2506001919050565b600554600160a060020a031681565b600154600160a060020a0316331461125b576040805160e560020a62461bcd02815260206004820152604860248201527f4f776e65643a204f6e6c79207573657220776974682070656e64696e67206f7760448201527f6e65727368697020616363657074616e63652063616e20616363657074206f7760648201527f6e65727368697021000000000000000000000000000000000000000000000000608482015290519081900360a40190fd5b60015460008054604051600160a060020a0393841693909116917f8be0079c531659141344cd1fd0a4f28419497f9722a3daafe3b4186f6b6457e091a3600180546000805473ffffffffffffffffffffffffffffffffffffffff19908116600160a060020a03841617909155169055565b600054600160a060020a031681565b60408051808201909152600481527f5553446600000000000000000000000000000000000000000000000000000000602082015290565b60008054600160a060020a03163314611363576040805160e560020a62461bcd02815260206004820152600e60248201526000805160206120dc833981519152604482015290519081900360640190fd5b604051600160a060020a03831690303180156108fc02916000818181858888f19350505050158015610de8573d6000803e3d6000fd5b336000818152600360209081526040808320600160a060020a03871684529091528120549091610de8918590610de3908663ffffffff611b5916565b60008054600160a060020a03163314611426576040805160e560020a62461bcd02815260206004820152600e60248201526000805160206120dc833981519152604482015290519081900360640190fd5b60008054604080517fa9059cbb000000000000000000000000000000000000000000000000000000008152600160a060020a0392831660048201526024810186905290519186169263a9059cbb926044808401936020939083900390910190829087803b15801561149657600080fd5b505af11580156114aa573d6000803e3d6000fd5b505050506040513d60208110156114c057600080fd5b50519392505050565b60008080808080600160a060020a03881615156114e9576000955061199a565b600554604080517f6c85cf67000000000000000000000000000000000000000000000000000000008152336004820152600160a060020a038b8116602483015291519190921691636c85cf679160448083019260209291908290030181600087803b15801561155757600080fd5b505af115801561156b573d6000803e3d6000fd5b505050506040513d602081101561158157600080fd5b5051151561158e57600080fd5b600160a060020a038816331480156116215750600560009054906101000a9004600160a060020a0316600160a060020a031663135aa7ef6040518163ffffffff1660e060020a028152600401602060405180830381600087803b1580156115f457600080fd5b505af1158015611608573d6000803e3d6000fd5b505050506040513d602081101561161e57600080fd5b50515b156116365761162f87610ea1565b955061199a565b600654604080517f99a5d747000000000000000000000000000000000000000000000000000000008152600481018a90529051600160a060020a03909216916399a5d747916024808201926020929091908290030181600087803b15801561169d57600080fd5b505af11580156116b1573d6000803e3d6000fd5b505050506040513d60208110156116c757600080fd5b5051600554604080517f603fdd01000000000000000000000000000000000000000000000000000000008152336004820152600160a060020a038c81166024830152915193985091169163603fdd01916044808201926020929091908290030181600087803b15801561173957600080fd5b505af115801561174d573d6000803e3d6000fd5b505050506040513d602081101561176357600080fd5b50511561176f57600094505b61177f878663ffffffff611bb916565b61178833610e86565b101561179357600080fd5b61179d8888611f1e565b93506000600160a060020a0316600560009054906101000a9004600160a060020a0316600160a060020a031663e2d2f6346040518163ffffffff1660e060020a028152600401602060405180830381600087803b1580156117fd57600080fd5b505af1158015611811573d6000803e3d6000fd5b505050506040513d602081101561182757600080fd5b5051600160a060020a0316146118bb57600560009054906101000a9004600160a060020a0316600160a060020a031663e2d2f6346040518163ffffffff1660e060020a028152600401602060405180830381600087803b15801561188a57600080fd5b505af115801561189e573d6000803e3d6000fd5b505050506040513d60208110156118b457600080fd5b50516118c8565b600054600160a060020a03165b92506118d48386611f1e565b91508380156118e05750815b9050801515611939576040805160e560020a62461bcd02815260206004820152600f60248201527f7472616e73666572206661696c65640000000000000000000000000000000000604482015290519081900360640190fd5b82600160a060020a031688600160a060020a031633600160a060020a03167f13e03272a9354ecc84c6ab7776b34bbc80d3d0f69b2cb0dc5b0134e8d63c94478a89604051808381526020018281526020019250505060405180910390a48095505b505050505092915050565b600054600160a060020a031633146119f5576040805160e560020a62461bcd02815260206004820152600e60248201526000805160206120dc833981519152604482015290519081900360640190fd5b6005805473ffffffffffffffffffffffffffffffffffffffff1916600160a060020a0392909216919091179055565b600654600160a060020a031681565b600154600160a060020a031681565b60006105e08383611c14565b600054600160a060020a03163314611a9e576040805160e560020a62461bcd02815260206004820152600e60248201526000805160206120dc833981519152604482015290519081900360640190fd5b6001805473ffffffffffffffffffffffffffffffffffffffff1916600160a060020a0392909216919091179055565b600054600160a060020a03163314611b1d576040805160e560020a62461bcd02815260206004820152600e60248201526000805160206120dc833981519152604482015290519081900360640190fd5b6006805473ffffffffffffffffffffffffffffffffffffffff1916600160a060020a0392909216919091179055565b6000610de8338484611d21565b600082821115611bb3576040805160e560020a62461bcd02815260206004820181905260248201527f536166654d6174684c69622e7375623a2072657175697265642062203c3d2061604482015290519081900360640190fd5b50900390565b818101828110156105e3576040805160e560020a62461bcd02815260206004820181905260248201527f536166654d6174684c69622e6164643a2072657175697265642063203e3d2061604482015290519081900360640190fd5b600160a060020a03918216600090815260036020908152604080832093909416825291909152205490565b6000611c4c848484611f27565b600160a060020a038416600090815260036020908152604080832033808552925290912054611c87918691610de3908663ffffffff611b5916565b5060019392505050565b600160a060020a038216600090815260026020526040812054611cba908363ffffffff611bb916565b600160a060020a038416600090815260026020526040902055600454611ce6908363ffffffff611bb916565b600455604080518381529051600160a060020a038516916000916000805160206120fc8339815191529181900360200190a350600192915050565b600160a060020a0383161515611da6576040805160e560020a62461bcd028152602060048201526024808201527f45524332303a20617070726f76652066726f6d20746865207a65726f2061646460448201527f7265737300000000000000000000000000000000000000000000000000000000606482015290519081900360840190fd5b600160a060020a0382161515611e2c576040805160e560020a62461bcd02815260206004820152602260248201527f45524332303a20617070726f766520746f20746865207a65726f20616464726560448201527f7373000000000000000000000000000000000000000000000000000000000000606482015290519081900360840190fd5b600160a060020a03808416600081815260036020908152604080832094871680845294825291829020859055815185815291517f8c5be1e5ebec7d5bd14f71427d1e84f3dd0314c0f7b2291e5b200ac8c7c3b9259281900390910190a3505050565b600160a060020a038216600090815260026020526040812054611eb7908363ffffffff611b5916565b600160a060020a038416600090815260026020526040902055600454611ee3908363ffffffff611b5916565b600455604080518381529051600091600160a060020a038616916000805160206120fc8339815191529181900360200190a350600192915050565b6000610de83384845b600160a060020a0383161515611fad576040805160e560020a62461bcd02815260206004820152602560248201527f45524332303a207472616e736665722066726f6d20746865207a65726f20616460448201527f6472657373000000000000000000000000000000000000000000000000000000606482015290519081900360840190fd5b600160a060020a0382161515612033576040805160e560020a62461bcd02815260206004820152602360248201527f45524332303a207472616e7366657220746f20746865207a65726f206164647260448201527f6573730000000000000000000000000000000000000000000000000000000000606482015290519081900360840190fd5b600160a060020a03831660009081526002602052604090205461205c908263ffffffff611b5916565b600160a060020a038085166000908152600260205260408082209390935590841681522054612091908263ffffffff611bb916565b600160a060020a0380841660008181526002602090815260409182902094909455805185815290519193928716926000805160206120fc83398151915292918290030190a350505056004f776e6572207265717569726564000000000000000000000000000000000000ddf252ad1be2c89b69c2b068fc378daa952ba7f163c4a11628f55a4df523b3efa165627a7a72305820fa6535d43b2b532676281cf198561354c3c7fc2515c21953cbf3e33f00f1f36a0029",
  "source": "pragma solidity ^0.4.24;\r\n\r\nimport \"./FiatToken.sol\";\r\n\r\n\r\n\r\n/**\r\n * @dev Top-level ERC20 compliant USD fiat currency token, with symbol, name, version and decimals among others.\r\n * Token units in this contract mean cents or pennies of the fiat currency it represents.\r\n */\r\ncontract USDf is FiatToken\r\n{\r\n\t/**\r\n\t * @dev Constructor\r\n\t */\r\n    constructor(address _config, address _fees)\r\n\t\tFiatToken(_config, _fees)\r\n\t\tpublic\r\n\t{\r\n    }\r\n\t\r\n\tfunction decimals() public pure returns (uint8) {\r\n        return 2;\r\n    }\r\n\r\n    function name() public pure returns (string) {\r\n        return \"USD fiat token\";\r\n    }\r\n\r\n    function symbol() public pure returns (string) {\r\n        return \"USDf\";\r\n    }\r\n\t\r\n\tfunction version() public pure returns (string) {\r\n        return \"v1.0\";\r\n    }\r\n}",
  "sourcePath": "C:/Users/Homeuser/Desktop/FiatechFiatCurrencyToken/contracts/USDf.sol",
  "compiler": {
    "name": "solc",
    "version": "0.4.24+commit.e67f0147.Emscripten.clang"
  },
  "schemaVersion": "3.0.5",
  "updatedAt": "2019-11-28T22:36:50.228Z",
  "devdoc": {
    "methods": {
      "acceptOwnership()": {
        "details": "New owner pending to accept ownership executes this function to confirm his ownership.\r"
      },
      "allowance(address,address)": {
        "details": "Returns the amount of tokens approved by the owner that can be\r transferred to the spender's account\r",
        "params": {
          "spender": "Address of spender that token owner approved to spend on his behalf\r",
          "tokenOwner": "Address of token owner we check for allowance on\r"
        },
        "return": "uint\r"
      },
      "approve(address,uint256)": {
        "details": "Token owner can approve for `spender` to transferFrom(...) `tokens`\r from the token owner's account\r \t * https://github.com/ethereum/EIPs/blob/master/EIPS/eip-20-token-standard.md\r https://eips.ethereum.org/EIPS/eip-20\r recommends that there are no checks for the approval double-spend attack\r as this should be implemented in user interfaces\r",
        "params": {
          "spender": "Spender address user approves to spend tokens on his behalf\r",
          "tokens": "Amount of tokens spender is approved to spend/transfer\r"
        },
        "return": "bool\r"
      },
      "decreaseAllowance(address,uint256)": {
        "details": "Atomically decreases the allowance granted to `spender` by the caller.\r      * This is an alternative to {approve} that can be used as a mitigation for\r problems described in {IERC20-approve}.\r      * Emits an {Approval} event indicating the updated allowance.\r      * Requirements:\r      * - `spender` cannot be the zero address.\r - `spender` must have allowance for the caller of at least\r `subtractedValue`.\r"
      },
      "depositAccept(address,uint256)": {
        "details": "Function executed by admin, after funds were received by bank wire or any other accepted method, admin deposits equal tokens to user address.\r",
        "params": {
          "_amount": "Amount of tokens to deposit to user address\r",
          "_to": "User address to deposit tokens to\r"
        },
        "return": "bool\r"
      },
      "increaseAllowance(address,uint256)": {
        "details": "Atomically increases the allowance granted to `spender` by the caller.\r      * This is an alternative to {approve} that can be used as a mitigation for\r problems described in {IERC20-approve}.\r      * Emits an {Approval} event indicating the updated allowance.\r      * Requirements:\r      * - `spender` cannot be the zero address.\r"
      },
      "kill()": {
        "details": "Destroy contract eliminating it from the blockchain\r"
      },
      "reclaimEther(address)": {
        "details": "Send all eth balance in the contract to another address\r",
        "params": {
          "_to": "Address to send contract ether balance to\r"
        },
        "return": "bool\r"
      },
      "recoverAnyERC20Token(address,uint256)": {
        "details": "Owner can transfer out any accidentally sent ERC20 tokens\r",
        "params": {
          "tokenAddress": "Token contract address we want to recover lost tokens from.\r",
          "tokens": "Amount of tokens to be recovered, usually the same as the balance of this contract.\r"
        },
        "return": "bool\r"
      },
      "transfer(address,uint256)": {
        "details": "Transfer the balance from token owner's account to `to` account\r - Owner's account must have sufficient balance to transfer\r - 0 value transfers are allowed\r",
        "params": {
          "to": "Address to transfer tokens to\r",
          "tokens": "Amount of tokens to tranfer\r"
        },
        "return": "bool\r"
      },
      "transferFrom(address,address,uint256)": {
        "details": "Transfer `tokens` from the `from` account to the `to` account\r \t * The calling account must already have sufficient tokens approve(...)-d\r for spending from the `from` account and\r - From account must have sufficient balance to transfer\r - Spender must have sufficient allowance to transfer\r - 0 value transfers are allowed\r *** The user executing the function pays the transfer fees, not the funds owner\r",
        "params": {
          "from": "Address approved spender tranfers tokens from\r",
          "to": "Address approved spender tranfers to\r",
          "tokens": "Amount of tokens approved to transfer\r"
        },
        "return": "bool\r"
      },
      "transferOwnership(address)": {
        "details": "Transfer ownership function\r",
        "params": {
          "_newOwner": "New owner address acquiring ownership of contract\r"
        }
      },
      "withdrawRequest(uint256)": {
        "details": "Function executed by user asking for a withdrawal, withdrawal fee (if any) is substracted from withdrawal amount\r e.g. if user withdraws $1000 he pays $1 from that amount as fee (for withdrawal fee = 0.1%)\r",
        "params": {
          "_amount": "Amount of tokens to withdraw\r"
        },
        "return": "bool\r"
      }
    }
  },
  "userdoc": {
    "methods": {
      "wipeoutAddressBalance(address)": {
        "notice": "*** BlockchainBridge contract functions\r *** BlacklistOperations contract functions\r"
      }
    }
  }
}