{
  "contractName": "USDf_fees",
  "abi": [
    {
      "constant": true,
      "inputs": [],
      "name": "name",
      "outputs": [
        {
          "name": "",
          "type": "bytes32"
        }
      ],
      "payable": false,
      "stateMutability": "view",
      "type": "function",
      "signature": "0x06fdde03"
    },
    {
      "constant": false,
      "inputs": [
        {
          "name": "_parts_Fee",
          "type": "uint256"
        },
        {
          "name": "_perX_Fee",
          "type": "uint256"
        }
      ],
      "name": "setFees",
      "outputs": [
        {
          "name": "ok",
          "type": "bool"
        }
      ],
      "payable": false,
      "stateMutability": "nonpayable",
      "type": "function",
      "signature": "0x0b78f9c0"
    },
    {
      "constant": false,
      "inputs": [
        {
          "name": "_parts_Fee",
          "type": "uint256"
        },
        {
          "name": "_perX_Fee",
          "type": "uint256"
        },
        {
          "name": "_min_Fee",
          "type": "uint256"
        },
        {
          "name": "_max_Fee",
          "type": "uint256"
        },
        {
          "name": "_feesEnabled",
          "type": "bool"
        }
      ],
      "name": "init",
      "outputs": [
        {
          "name": "",
          "type": "bool"
        }
      ],
      "payable": false,
      "stateMutability": "nonpayable",
      "type": "function",
      "signature": "0x1f8b8aac"
    },
    {
      "constant": false,
      "inputs": [
        {
          "name": "enable",
          "type": "bool"
        }
      ],
      "name": "enableFees",
      "outputs": [
        {
          "name": "ok",
          "type": "bool"
        }
      ],
      "payable": false,
      "stateMutability": "nonpayable",
      "type": "function",
      "signature": "0x2bf5eabb"
    },
    {
      "constant": false,
      "inputs": [
        {
          "name": "newMinFee",
          "type": "uint256"
        }
      ],
      "name": "setMinFee",
      "outputs": [
        {
          "name": "ok",
          "type": "bool"
        }
      ],
      "payable": false,
      "stateMutability": "nonpayable",
      "type": "function",
      "signature": "0x31ac9920"
    },
    {
      "constant": false,
      "inputs": [],
      "name": "kill",
      "outputs": [],
      "payable": false,
      "stateMutability": "nonpayable",
      "type": "function",
      "signature": "0x41c0e1b5"
    },
    {
      "constant": true,
      "inputs": [],
      "name": "getFeesNumerator",
      "outputs": [
        {
          "name": "_parts_Fee",
          "type": "uint256"
        }
      ],
      "payable": false,
      "stateMutability": "view",
      "type": "function",
      "signature": "0x41eb2e2a"
    },
    {
      "constant": false,
      "inputs": [
        {
          "name": "_newName",
          "type": "bytes32"
        }
      ],
      "name": "setName",
      "outputs": [
        {
          "name": "success",
          "type": "bool"
        }
      ],
      "payable": false,
      "stateMutability": "nonpayable",
      "type": "function",
      "signature": "0x5ac801fe"
    },
    {
      "constant": true,
      "inputs": [],
      "name": "getMinFee",
      "outputs": [
        {
          "name": "",
          "type": "uint256"
        }
      ],
      "payable": false,
      "stateMutability": "view",
      "type": "function",
      "signature": "0x5cf34bcf"
    },
    {
      "constant": false,
      "inputs": [
        {
          "name": "newMaxFee",
          "type": "uint256"
        }
      ],
      "name": "setMaxFee",
      "outputs": [
        {
          "name": "ok",
          "type": "bool"
        }
      ],
      "payable": false,
      "stateMutability": "nonpayable",
      "type": "function",
      "signature": "0x710e5d2f"
    },
    {
      "constant": false,
      "inputs": [],
      "name": "acceptOwnership",
      "outputs": [],
      "payable": false,
      "stateMutability": "nonpayable",
      "type": "function",
      "signature": "0x79ba5097"
    },
    {
      "constant": true,
      "inputs": [],
      "name": "owner",
      "outputs": [
        {
          "name": "",
          "type": "address"
        }
      ],
      "payable": false,
      "stateMutability": "view",
      "type": "function",
      "signature": "0x8da5cb5b"
    },
    {
      "constant": true,
      "inputs": [],
      "name": "getMaxFee",
      "outputs": [
        {
          "name": "",
          "type": "uint256"
        }
      ],
      "payable": false,
      "stateMutability": "view",
      "type": "function",
      "signature": "0x92828671"
    },
    {
      "constant": true,
      "inputs": [
        {
          "name": "tokens",
          "type": "uint256"
        }
      ],
      "name": "calculateFee",
      "outputs": [
        {
          "name": "fee",
          "type": "uint256"
        }
      ],
      "payable": false,
      "stateMutability": "view",
      "type": "function",
      "signature": "0x99a5d747"
    },
    {
      "constant": false,
      "inputs": [
        {
          "name": "_to",
          "type": "address"
        }
      ],
      "name": "reclaimEther",
      "outputs": [
        {
          "name": "",
          "type": "bool"
        }
      ],
      "payable": false,
      "stateMutability": "nonpayable",
      "type": "function",
      "signature": "0x9a6a30a4"
    },
    {
      "constant": true,
      "inputs": [],
      "name": "admins",
      "outputs": [
        {
          "name": "",
          "type": "address"
        }
      ],
      "payable": false,
      "stateMutability": "view",
      "type": "function",
      "signature": "0xa5de3619"
    },
    {
      "constant": true,
      "inputs": [],
      "name": "feesEnabled",
      "outputs": [
        {
          "name": "",
          "type": "bool"
        }
      ],
      "payable": false,
      "stateMutability": "view",
      "type": "function",
      "signature": "0xa64e4f8a"
    },
    {
      "constant": true,
      "inputs": [],
      "name": "getFeesDenominator",
      "outputs": [
        {
          "name": "_perX_Fee",
          "type": "uint256"
        }
      ],
      "payable": false,
      "stateMutability": "view",
      "type": "function",
      "signature": "0xc67e23bf"
    },
    {
      "constant": true,
      "inputs": [],
      "name": "newOwner",
      "outputs": [
        {
          "name": "",
          "type": "address"
        }
      ],
      "payable": false,
      "stateMutability": "view",
      "type": "function",
      "signature": "0xd4ee1d90"
    },
    {
      "constant": false,
      "inputs": [
        {
          "name": "_admins",
          "type": "address"
        }
      ],
      "name": "setIAdmin",
      "outputs": [],
      "payable": false,
      "stateMutability": "nonpayable",
      "type": "function",
      "signature": "0xf0937467"
    },
    {
      "constant": false,
      "inputs": [
        {
          "name": "_newOwner",
          "type": "address"
        }
      ],
      "name": "transferOwnership",
      "outputs": [],
      "payable": false,
      "stateMutability": "nonpayable",
      "type": "function",
      "signature": "0xf2fde38b"
    },
    {
      "inputs": [
        {
          "name": "_admins",
          "type": "address"
        }
      ],
      "payable": false,
      "stateMutability": "nonpayable",
      "type": "constructor",
      "signature": "constructor"
    },
    {
      "payable": true,
      "stateMutability": "payable",
      "type": "fallback"
    },
    {
      "anonymous": false,
      "inputs": [
        {
          "indexed": true,
          "name": "_owner",
          "type": "address"
        },
        {
          "indexed": false,
          "name": "_newName",
          "type": "bytes32"
        }
      ],
      "name": "NameChanged",
      "type": "event",
      "signature": "0x14730c8acd0e6ebe26cf9620e28f2f6dac83c99686ec435a5671aac35a4d46a7"
    },
    {
      "anonymous": false,
      "inputs": [
        {
          "indexed": true,
          "name": "_from",
          "type": "address"
        },
        {
          "indexed": true,
          "name": "_to",
          "type": "address"
        }
      ],
      "name": "OwnershipTransferred",
      "type": "event",
      "signature": "0x8be0079c531659141344cd1fd0a4f28419497f9722a3daafe3b4186f6b6457e0"
    },
    {
      "anonymous": false,
      "inputs": [
        {
          "indexed": true,
          "name": "admin",
          "type": "address"
        }
      ],
      "name": "FeesEnabled",
      "type": "event",
      "signature": "0xc4ed741be5dc8964a732b95a4e9ea542c2f28bbe576a5ca9e078f173c79f679d"
    },
    {
      "anonymous": false,
      "inputs": [
        {
          "indexed": true,
          "name": "admin",
          "type": "address"
        }
      ],
      "name": "FeesDisabled",
      "type": "event",
      "signature": "0xfe7742d731ff84398bcd01702c0d2a06ed3e308f22d05ac44709c18d4d9d8062"
    },
    {
      "anonymous": false,
      "inputs": [
        {
          "indexed": true,
          "name": "admin",
          "type": "address"
        },
        {
          "indexed": false,
          "name": "parts_Fee",
          "type": "uint256"
        },
        {
          "indexed": false,
          "name": "perX_Fee",
          "type": "uint256"
        }
      ],
      "name": "FeesChanged",
      "type": "event",
      "signature": "0xaa40309752e85cd5a93a81629cc8577ecb27e3394ec644c7e1ed0f453bab963e"
    },
    {
      "anonymous": false,
      "inputs": [
        {
          "indexed": true,
          "name": "admin",
          "type": "address"
        },
        {
          "indexed": false,
          "name": "minFee",
          "type": "uint256"
        }
      ],
      "name": "MinFeesChanged",
      "type": "event",
      "signature": "0x5a8bdb0b826389c81593392ecd18c11c103215d4d768313a18d76871f4ccefb7"
    },
    {
      "anonymous": false,
      "inputs": [
        {
          "indexed": true,
          "name": "admin",
          "type": "address"
        },
        {
          "indexed": false,
          "name": "maxFee",
          "type": "uint256"
        }
      ],
      "name": "MaxFeesChanged",
      "type": "event",
      "signature": "0x644f29fd4a10907e6a888e9ddf77c900c1b90f83c1183e2be0234352e10be4f2"
    }
  ],
  "bytecode": "0x608060405234801561001057600080fd5b50604051602080620014a0833981016040819052905160008054600160a060020a03191633178082559192839282918291829182918791600160a060020a03919091169083907f8be0079c531659141344cd1fd0a4f28419497f9722a3daafe3b4186f6b6457e0908290a36000600255610092816401000000006100f5810204565b50600194506103e89350600a9250600091508190506100c360048686868580640100000000610e9a61019082021704565b50507f466961746563682055534466206665657300000000000000000000000000000060025550610208945050505050565b600054600160a060020a0316331461016e57604080517f08c379a000000000000000000000000000000000000000000000000000000000815260206004820152600e60248201527f4f776e6572207265717569726564000000000000000000000000000000000000604482015290519081900360640190fd5b60038054600160a060020a031916600160a060020a0392909216919091179055565b8554600090861461019f578587555b600187015485146101b257600187018590555b600287015484146101c557600287018490555b600387015483146101d857600387018390555b600487015460ff161515821515146101fb5760048701805460ff19168315151790555b5060019695505050505050565b61128880620002186000396000f30060806040526004361061011c5763ffffffff7c010000000000000000000000000000000000000000000000000000000060003504166306fdde03811461011e5780630b78f9c0146101455780631f8b8aac146101745780632bf5eabb1461019a57806331ac9920146101b457806341c0e1b5146101cc57806341eb2e2a146101e15780635ac801fe146101f65780635cf34bcf1461020e578063710e5d2f1461022357806379ba50971461023b5780638da5cb5b14610250578063928286711461028157806399a5d747146102965780639a6a30a4146102ae578063a5de3619146102cf578063a64e4f8a146102e4578063c67e23bf146102f9578063d4ee1d901461030e578063f093746714610323578063f2fde38b14610344575b005b34801561012a57600080fd5b50610133610365565b60408051918252519081900360200190f35b34801561015157600080fd5b5061016060043560243561036b565b604080519115158252519081900360200190f35b34801561018057600080fd5b506101606004356024356044356064356084351515610485565b3480156101a657600080fd5b506101606004351515610563565b3480156101c057600080fd5b506101606004356106a2565b3480156101d857600080fd5b5061011c6107b5565b3480156101ed57600080fd5b50610133610813565b34801561020257600080fd5b50610160600435610819565b34801561021a57600080fd5b506101336108be565b34801561022f57600080fd5b506101606004356108c4565b34801561024757600080fd5b5061011c6109d7565b34801561025c57600080fd5b50610265610af6565b60408051600160a060020a039092168252519081900360200190f35b34801561028d57600080fd5b50610133610b05565b3480156102a257600080fd5b50610133600435610b0b565b3480156102ba57600080fd5b50610160600160a060020a0360043516610b1e565b3480156102db57600080fd5b50610265610bae565b3480156102f057600080fd5b50610160610bbd565b34801561030557600080fd5b50610133610bc6565b34801561031a57600080fd5b50610265610bcc565b34801561032f57600080fd5b5061011c600160a060020a0360043516610bdb565b34801561035057600080fd5b5061011c600160a060020a0360043516610c5a565b60025481565b6003546040805160e260020a630935e01b0281523360048201529051600092600160a060020a0316916324d7806c91602480830192602092919082900301818787803b1580156103ba57600080fd5b505af11580156103ce573d6000803e3d6000fd5b505050506040513d60208110156103e457600080fd5b5051151561042a576040805160e560020a62461bcd02815260206004820152600e602482015260008051602061123d833981519152604482015290519081900360640190fd5b61043c6004848463ffffffff610cd916565b9050801561047f576040805184815260208101849052815133927faa40309752e85cd5a93a81629cc8577ecb27e3394ec644c7e1ed0f453bab963e928290030190a25b92915050565b6003546040805160e260020a630935e01b0281523360048201529051600092600160a060020a0316916324d7806c91602480830192602092919082900301818787803b1580156104d457600080fd5b505af11580156104e8573d6000803e3d6000fd5b505050506040513d60208110156104fe57600080fd5b50511515610544576040805160e560020a62461bcd02815260206004820152600e602482015260008051602061123d833981519152604482015290519081900360640190fd5b6105596004878787878763ffffffff610e9a16565b9695505050505050565b6003546040805160e260020a630935e01b0281523360048201529051600092600160a060020a0316916324d7806c91602480830192602092919082900301818787803b1580156105b257600080fd5b505af11580156105c6573d6000803e3d6000fd5b505050506040513d60208110156105dc57600080fd5b50511515610622576040805160e560020a62461bcd02815260206004820152600e602482015260008051602061123d833981519152604482015290519081900360640190fd5b61063360048363ffffffff610f1216565b9050801561069d5781156106715760405133907fc4ed741be5dc8964a732b95a4e9ea542c2f28bbe576a5ca9e078f173c79f679d90600090a261069d565b60405133907ffe7742d731ff84398bcd01702c0d2a06ed3e308f22d05ac44709c18d4d9d806290600090a25b919050565b6003546040805160e260020a630935e01b0281523360048201529051600092600160a060020a0316916324d7806c91602480830192602092919082900301818787803b1580156106f157600080fd5b505af1158015610705573d6000803e3d6000fd5b505050506040513d602081101561071b57600080fd5b50511515610761576040805160e560020a62461bcd02815260206004820152600e602482015260008051602061123d833981519152604482015290519081900360640190fd5b61077260048363ffffffff610f4816565b9050801561069d5760408051838152905133917f5a8bdb0b826389c81593392ecd18c11c103215d4d768313a18d76871f4ccefb7919081900360200190a2919050565b600054600160a060020a03163314610805576040805160e560020a62461bcd02815260206004820152600e602482015260008051602061121d833981519152604482015290519081900360640190fd5b600054600160a060020a0316ff5b60045490565b60008054600160a060020a0316331461086a576040805160e560020a62461bcd02815260206004820152600e602482015260008051602061121d833981519152604482015290519081900360640190fd5b60025482146108b657600282905560408051838152905133917f14730c8acd0e6ebe26cf9620e28f2f6dac83c99686ec435a5671aac35a4d46a7919081900360200190a250600161069d565b506000919050565b60065490565b6003546040805160e260020a630935e01b0281523360048201529051600092600160a060020a0316916324d7806c91602480830192602092919082900301818787803b15801561091357600080fd5b505af1158015610927573d6000803e3d6000fd5b505050506040513d602081101561093d57600080fd5b50511515610983576040805160e560020a62461bcd02815260206004820152600e602482015260008051602061123d833981519152604482015290519081900360640190fd5b61099460048363ffffffff610f6516565b9050801561069d5760408051838152905133917f644f29fd4a10907e6a888e9ddf77c900c1b90f83c1183e2be0234352e10be4f2919081900360200190a2919050565b600154600160a060020a03163314610a85576040805160e560020a62461bcd02815260206004820152604860248201527f4f776e65643a204f6e6c79207573657220776974682070656e64696e67206f7760448201527f6e65727368697020616363657074616e63652063616e20616363657074206f7760648201527f6e65727368697021000000000000000000000000000000000000000000000000608482015290519081900360a40190fd5b60015460008054604051600160a060020a0393841693909116917f8be0079c531659141344cd1fd0a4f28419497f9722a3daafe3b4186f6b6457e091a3600180546000805473ffffffffffffffffffffffffffffffffffffffff19908116600160a060020a03841617909155169055565b600054600160a060020a031681565b60075490565b600061047f60048363ffffffff610f8216565b60008054600160a060020a03163314610b6f576040805160e560020a62461bcd02815260206004820152600e602482015260008051602061121d833981519152604482015290519081900360640190fd5b604051600160a060020a03831690303180156108fc02916000818181858888f19350505050158015610ba5573d6000803e3d6000fd5b50600192915050565b600354600160a060020a031681565b60085460ff1690565b60055490565b600154600160a060020a031681565b600054600160a060020a03163314610c2b576040805160e560020a62461bcd02815260206004820152600e602482015260008051602061121d833981519152604482015290519081900360640190fd5b6003805473ffffffffffffffffffffffffffffffffffffffff1916600160a060020a0392909216919091179055565b600054600160a060020a03163314610caa576040805160e560020a62461bcd02815260206004820152600e602482015260008051602061121d833981519152604482015290519081900360640190fd5b6001805473ffffffffffffffffffffffffffffffffffffffff1916600160a060020a0392909216919091179055565b825460009083141580610cf0575083600101548214155b1515610d92576040805160e560020a62461bcd02815260206004820152605560248201527f466565734c69622e5f736574466565733a207265717569726564205f7061727460448201527f735f46656520213d2073656c662e70617274735f466565207c7c205f7065725860648201527f5f46656520213d2073656c662e706572585f4665650000000000000000000000608482015290519081900360a40190fd5b60008211610e10576040805160e560020a62461bcd02815260206004820152602860248201527f466565734c69622e5f736574466565733a207265717569726564205f7065725860448201527f5f466565203e2030000000000000000000000000000000000000000000000000606482015290519081900360840190fd5b818310610e8d576040805160e560020a62461bcd02815260206004820152603160248201527f466565734c69622e5f736574466565733a207265717569726564205f7061727460448201527f735f466565203c205f706572585f466565000000000000000000000000000000606482015290519081900360840190fd5b5090825560019182015590565b85546000908614610ea9578587555b60018701548514610ebc57600187018590555b60028701548414610ecf57600287018490555b60038701548314610ee257600387018390555b600487015460ff16151582151514610f055760048701805460ff19168315151790555b5060019695505050505050565b600482015460009060ff16151582151514610f3f575060048201805460ff1916821515179055600161047f565b50600092915050565b60028201546000908214610f3f575060028201819055600161047f565b60038201546000908214610f3f575060038201819055600161047f565b600482015460009060ff161515610f9b5750600061047f565b82546001840154610fb391849163ffffffff61100e16565b600484015490915060ff168015610fcd5750826002015481105b15610fd9575060028201545b600483015460ff168015610ff1575060008360030154115b80156110005750826003015481115b1561047f5750506003015490565b6000808080841161108f576040805160e560020a62461bcd02815260206004820152602660248201527f536166654d6174684c69622e70657263656e743a20726571756972656420706560448201527f7258203e20300000000000000000000000000000000000000000000000000000606482015290519081900360840190fd5b85151561109f5760009250611111565b84860291506000851180156110bf57508486838115156110bb57fe5b0414155b905080156110ee576110e7856110db888763ffffffff61111a16565b9063ffffffff61118616565b9250611111565b61110e84611102888863ffffffff61118616565b9063ffffffff61111a16565b92505b50509392505050565b6000808211611173576040805160e560020a62461bcd02815260206004820152601f60248201527f536166654d6174684c69622e6469763a2072657175697265642062203e203000604482015290519081900360640190fd5b818381151561117e57fe5b049392505050565b8181028215806111a0575081838281151561119d57fe5b04145b151561047f576040805160e560020a62461bcd02815260206004820152603060248201527f536166654d6174684c69622e6d756c3a207265717569726564202861203d3d2060448201527f30207c7c2063202f2061203d3d20622900000000000000000000000000000000606482015290519081900360840190fd004f776e657220726571756972656400000000000000000000000000000000000041646d696e207265717569726564000000000000000000000000000000000000a165627a7a7230582005cd5052f4d24b048bef357ac178e65bba0609cda8c65574e1bc857ce6d5e7630029",
  "source": "pragma solidity ^0.4.24;\r\n\r\nimport \"./Fees.sol\";\r\n\r\n/**\r\n * @dev Top-level ERC20 compliant USD fiat currency token fees contract.\r\n */\r\ncontract USDf_fees is Fees\r\n{\r\n\t/**\r\n\t * @dev Constructor\r\n\t */\r\n    constructor(address _admins)\r\n\t\tFees(_admins)\r\n\t\tpublic\r\n\t{\r\n\t\tname = \"Fiatech USDf fees\";\r\n    }\r\n}",
  "sourcePath": "C:/Users/Homeuser/Desktop/FiatechFiatCurrencyToken/contracts/USDf_fees.sol",
  "compiler": {
    "name": "solc",
    "version": "0.4.24+commit.e67f0147.Emscripten.clang"
  },
  "schemaVersion": "3.0.5",
  "updatedAt": "2019-11-28T22:36:50.236Z",
  "devdoc": {
    "methods": {
      "acceptOwnership()": {
        "details": "New owner pending to accept ownership executes this function to confirm his ownership.\r"
      },
      "calculateFee(uint256)": {
        "details": "CalculateFee, given token amount, calculate transfer fee in units/tokens that are cents or pennies\r",
        "params": {
          "tokens": "Tokens amount to calculate fees for\r"
        },
        "return": "uint\r"
      },
      "enableFees(bool)": {
        "details": "Enable/Disable fees\r",
        "return": "bool\r"
      },
      "feesEnabled()": {
        "details": "Check enabled/disabled fees\r",
        "return": "bool\r"
      },
      "getFeesDenominator()": {
        "details": "Get fees as parts per X units\r",
        "return": "bool\r"
      },
      "getFeesNumerator()": {
        "details": "Get fees as parts per X units\r",
        "return": "bool\r"
      },
      "getMaxFee()": {
        "details": "Get maximum fee tokens/pennies/cents\r",
        "return": "uint\r"
      },
      "getMinFee()": {
        "details": "Get minimum fee tokens/pennies/cents\r",
        "return": "uint\r"
      },
      "init(uint256,uint256,uint256,uint256,bool)": {
        "details": "initTransferFees, given all required parameters in the same order as they are declared in the Fee struct.\r",
        "params": {
          "_feesEnabled": "Are fees enables?\r",
          "_max_Fee": "Maximum amount of tokens for the fee, zero means no maximum\r",
          "_min_Fee": "Mininmum amount of tokens for the fee\r",
          "_parts_Fee": "Numerator component of the fee percentage\r",
          "_perX_Fee": "Denominator component of the fee percentage\r"
        },
        "return": "bool\r"
      },
      "kill()": {
        "details": "Destroy contract eliminating it from the blockchain\r"
      },
      "reclaimEther(address)": {
        "details": "Send all eth balance in the contract to another address\r",
        "params": {
          "_to": "Address to send contract ether balance to\r"
        },
        "return": "bool\r"
      },
      "setFees(uint256,uint256)": {
        "details": "Set fees as parts per X units\r",
        "params": {
          "_parts_Fee": "Parts component of the fee percentage\r",
          "_perX_Fee": "Per X component of the fee percentage\r"
        },
        "return": "bool\r"
      },
      "setMaxFee(uint256)": {
        "details": "Change maximum fee tokens/pennies/cents\r",
        "params": {
          "newMaxFee": "Maximum amount of tokens to be set as maximum\r"
        },
        "return": "bool\r"
      },
      "setMinFee(uint256)": {
        "details": "Change minimum fee tokens/pennies/cents\r",
        "params": {
          "newMinFee": "Minimum amount of tokens to be set as minimum\r"
        },
        "return": "bool\r"
      },
      "setName(bytes32)": {
        "details": "Change contract name, only admin can do it.\r",
        "params": {
          "_newName": "New name given to contract.\r"
        }
      },
      "transferOwnership(address)": {
        "details": "Transfer ownership function\r",
        "params": {
          "_newOwner": "New owner address acquiring ownership of contract\r"
        }
      }
    }
  },
  "userdoc": {
    "methods": {}
  }
}